{
	"contracts/Price.sol": {
		"Price": {
			"abi": [
				{
					"inputs": [],
					"stateMutability": "nonpayable",
					"type": "constructor"
				},
				{
					"anonymous": false,
					"inputs": [
						{
							"indexed": false,
							"internalType": "string",
							"name": "coin",
							"type": "string"
						}
					],
					"name": "NewTransaction",
					"type": "event"
				},
				{
					"inputs": [
						{
							"internalType": "string",
							"name": "_coin",
							"type": "string"
						}
					],
					"name": "getCoinPrice",
					"outputs": [
						{
							"internalType": "string",
							"name": "",
							"type": "string"
						}
					],
					"stateMutability": "view",
					"type": "function"
				},
				{
					"inputs": [],
					"name": "getContractAddress",
					"outputs": [
						{
							"internalType": "address",
							"name": "",
							"type": "address"
						}
					],
					"stateMutability": "view",
					"type": "function"
				},
				{
					"inputs": [],
					"name": "owner",
					"outputs": [
						{
							"internalType": "address payable",
							"name": "",
							"type": "address"
						}
					],
					"stateMutability": "view",
					"type": "function"
				},
				{
					"inputs": [
						{
							"internalType": "string",
							"name": "_coin",
							"type": "string"
						}
					],
					"name": "requestUpdate",
					"outputs": [],
					"stateMutability": "nonpayable",
					"type": "function"
				},
				{
					"inputs": [
						{
							"internalType": "string",
							"name": "_coin",
							"type": "string"
						},
						{
							"internalType": "string",
							"name": "_price",
							"type": "string"
						}
					],
					"name": "updateCoinPrice",
					"outputs": [],
					"stateMutability": "nonpayable",
					"type": "function"
				},
				{
					"inputs": [
						{
							"internalType": "address",
							"name": "newAddress",
							"type": "address"
						}
					],
					"name": "updateOwner",
					"outputs": [],
					"stateMutability": "nonpayable",
					"type": "function"
				}
			],
			"devdoc": {
				"kind": "dev",
				"methods": {},
				"version": 1
			},
			"evm": {
				"assembly": "    /* \"contracts/Price.sol\":59:1342  contract Price {... */\n  mstore(0x40, 0x80)\n    /* \"contracts/Price.sol\":115:173  constructor() {... */\n  callvalue\n  dup1\n  iszero\n  tag_1\n  jumpi\n  0x00\n  dup1\n  revert\ntag_1:\n  pop\n    /* \"contracts/Price.sol\":155:165  msg.sender */\n  caller\n    /* \"contracts/Price.sol\":139:144  owner */\n  0x00\n  dup1\n    /* \"contracts/Price.sol\":139:166  owner = payable(msg.sender) */\n  0x0100\n  exp\n  dup2\n  sload\n  dup2\n  0xffffffffffffffffffffffffffffffffffffffff\n  mul\n  not\n  and\n  swap1\n  dup4\n  0xffffffffffffffffffffffffffffffffffffffff\n  and\n  mul\n  or\n  swap1\n  sstore\n  pop\n    /* \"contracts/Price.sol\":59:1342  contract Price {... */\n  dataSize(sub_0)\n  dup1\n  dataOffset(sub_0)\n  0x00\n  codecopy\n  0x00\n  return\nstop\n\nsub_0: assembly {\n        /* \"contracts/Price.sol\":59:1342  contract Price {... */\n      mstore(0x40, 0x80)\n      callvalue\n      dup1\n      iszero\n      tag_1\n      jumpi\n      0x00\n      dup1\n      revert\n    tag_1:\n      pop\n      jumpi(tag_2, lt(calldatasize, 0x04))\n      shr(0xe0, calldataload(0x00))\n      dup1\n      0x32a2c5d0\n      eq\n      tag_3\n      jumpi\n      dup1\n      0x69b43d07\n      eq\n      tag_4\n      jumpi\n      dup1\n      0x880cdc31\n      eq\n      tag_5\n      jumpi\n      dup1\n      0x8da5cb5b\n      eq\n      tag_6\n      jumpi\n      dup1\n      0xa9d524e3\n      eq\n      tag_7\n      jumpi\n      dup1\n      0xf5a9e551\n      eq\n      tag_8\n      jumpi\n    tag_2:\n      0x00\n      dup1\n      revert\n        /* \"contracts/Price.sol\":294:391  function getContractAddress() public view returns (address) {... */\n    tag_3:\n      tag_9\n      tag_10\n      jump\t// in\n    tag_9:\n      mload(0x40)\n      tag_11\n      swap2\n      swap1\n      tag_12\n      jump\t// in\n    tag_11:\n      mload(0x40)\n      dup1\n      swap2\n      sub\n      swap1\n      return\n        /* \"contracts/Price.sol\":684:912  function requestUpdate(string memory _coin) public {... */\n    tag_4:\n      tag_13\n      0x04\n      dup1\n      calldatasize\n      sub\n      dup2\n      add\n      swap1\n      tag_14\n      swap2\n      swap1\n      tag_15\n      jump\t// in\n    tag_14:\n      tag_16\n      jump\t// in\n    tag_13:\n      stop\n        /* \"contracts/Price.sol\":1238:1340  function updateOwner(address newAddress) public onlyOwner {... */\n    tag_5:\n      tag_17\n      0x04\n      dup1\n      calldatasize\n      sub\n      dup2\n      add\n      swap1\n      tag_18\n      swap2\n      swap1\n      tag_19\n      jump\t// in\n    tag_18:\n      tag_20\n      jump\t// in\n    tag_17:\n      stop\n        /* \"contracts/Price.sol\":80:108  address payable public owner */\n    tag_6:\n      tag_21\n      tag_22\n      jump\t// in\n    tag_21:\n      mload(0x40)\n      tag_23\n      swap2\n      swap1\n      tag_24\n      jump\t// in\n    tag_23:\n      mload(0x40)\n      dup1\n      swap2\n      sub\n      swap1\n      return\n        /* \"contracts/Price.sol\":918:1036  function getCoinPrice(string memory _coin) public view returns(string memory) {... */\n    tag_7:\n      tag_25\n      0x04\n      dup1\n      calldatasize\n      sub\n      dup2\n      add\n      swap1\n      tag_26\n      swap2\n      swap1\n      tag_15\n      jump\t// in\n    tag_26:\n      tag_27\n      jump\t// in\n    tag_25:\n      mload(0x40)\n      tag_28\n      swap2\n      swap1\n      tag_29\n      jump\t// in\n    tag_28:\n      mload(0x40)\n      dup1\n      swap2\n      sub\n      swap1\n      return\n        /* \"contracts/Price.sol\":1042:1232  function updateCoinPrice(string memory _coin, string memory _price) public {... */\n    tag_8:\n      tag_30\n      0x04\n      dup1\n      calldatasize\n      sub\n      dup2\n      add\n      swap1\n      tag_31\n      swap2\n      swap1\n      tag_32\n      jump\t// in\n    tag_31:\n      tag_33\n      jump\t// in\n    tag_30:\n      stop\n        /* \"contracts/Price.sol\":294:391  function getContractAddress() public view returns (address) {... */\n    tag_10:\n        /* \"contracts/Price.sol\":345:352  address */\n      0x00\n        /* \"contracts/Price.sol\":379:383  this */\n      address\n        /* \"contracts/Price.sol\":364:384  return address(this) */\n      swap1\n      pop\n        /* \"contracts/Price.sol\":294:391  function getContractAddress() public view returns (address) {... */\n      swap1\n      jump\t// out\n        /* \"contracts/Price.sol\":684:912  function requestUpdate(string memory _coin) public {... */\n    tag_16:\n        /* \"contracts/Price.sol\":745:778  Transaction memory newTransaction */\n      0x00\n        /* \"contracts/Price.sol\":781:802  Transaction(_coin, 0) */\n      mload(0x40)\n      dup1\n      0x40\n      add\n      0x40\n      mstore\n      dup1\n        /* \"contracts/Price.sol\":793:798  _coin */\n      dup4\n        /* \"contracts/Price.sol\":781:802  Transaction(_coin, 0) */\n      dup2\n      mstore\n      0x20\n      add\n        /* \"contracts/Price.sol\":800:801  0 */\n      0x00\n        /* \"contracts/Price.sol\":781:802  Transaction(_coin, 0) */\n      0xff\n      and\n      dup2\n      mstore\n      pop\n        /* \"contracts/Price.sol\":745:802  Transaction memory newTransaction = Transaction(_coin, 0) */\n      swap1\n      pop\n        /* \"contracts/Price.sol\":812:824  transactions */\n      0x01\n        /* \"contracts/Price.sol\":830:844  newTransaction */\n      dup2\n        /* \"contracts/Price.sol\":812:845  transactions.push(newTransaction) */\n      swap1\n      dup1\n      0x01\n      dup2\n      sload\n      add\n      dup1\n      dup3\n      sstore\n      dup1\n      swap2\n      pop\n      pop\n      0x01\n      swap1\n      sub\n      swap1\n      0x00\n      mstore\n      keccak256(0x00, 0x20)\n      swap1\n      0x02\n      mul\n      add\n      0x00\n      swap1\n      swap2\n      swap1\n      swap2\n      swap1\n      swap2\n      pop\n      0x00\n      dup3\n      add\n      mload\n      dup2\n      0x00\n      add\n      swap1\n      dup2\n      tag_37\n      swap2\n      swap1\n      tag_38\n      jump\t// in\n    tag_37:\n      pop\n      0x20\n      dup3\n      add\n      mload\n      dup2\n      0x01\n      add\n      exp(0x0100, 0x00)\n      dup2\n      sload\n      dup2\n      0xff\n      mul\n      not\n      and\n      swap1\n      dup4\n      0xff\n      and\n      mul\n      or\n      swap1\n      sstore\n      pop\n      pop\n      pop\n        /* \"contracts/Price.sol\":884:905  NewTransaction(_coin) */\n      0x08f81b6e9109fad00df4c1e4c8017ba4cb67013034439d71e57399c83aa23f3c\n        /* \"contracts/Price.sol\":899:904  _coin */\n      dup3\n        /* \"contracts/Price.sol\":884:905  NewTransaction(_coin) */\n      mload(0x40)\n      tag_39\n      swap2\n      swap1\n      tag_29\n      jump\t// in\n    tag_39:\n      mload(0x40)\n      dup1\n      swap2\n      sub\n      swap1\n      log1\n        /* \"contracts/Price.sol\":735:912  {... */\n      pop\n        /* \"contracts/Price.sol\":684:912  function requestUpdate(string memory _coin) public {... */\n      pop\n      jump\t// out\n        /* \"contracts/Price.sol\":1238:1340  function updateOwner(address newAddress) public onlyOwner {... */\n    tag_20:\n        /* \"contracts/Price.sol\":233:243  msg.sender */\n      caller\n        /* \"contracts/Price.sol\":216:244  owner == payable(msg.sender) */\n      0xffffffffffffffffffffffffffffffffffffffff\n      and\n        /* \"contracts/Price.sol\":216:221  owner */\n      0x00\n      dup1\n      sload\n      swap1\n      0x0100\n      exp\n      swap1\n      div\n      0xffffffffffffffffffffffffffffffffffffffff\n      and\n        /* \"contracts/Price.sol\":216:244  owner == payable(msg.sender) */\n      0xffffffffffffffffffffffffffffffffffffffff\n      and\n      eq\n        /* \"contracts/Price.sol\":208:270  require(owner == payable(msg.sender), \"You are not an owner!\") */\n      tag_41\n      jumpi\n      mload(0x40)\n      0x08c379a000000000000000000000000000000000000000000000000000000000\n      dup2\n      mstore\n      0x04\n      add\n      tag_42\n      swap1\n      tag_43\n      jump\t// in\n    tag_42:\n      mload(0x40)\n      dup1\n      swap2\n      sub\n      swap1\n      revert\n    tag_41:\n        /* \"contracts/Price.sol\":1322:1332  newAddress */\n      dup1\n        /* \"contracts/Price.sol\":1306:1311  owner */\n      0x00\n      dup1\n        /* \"contracts/Price.sol\":1306:1333  owner = payable(newAddress) */\n      0x0100\n      exp\n      dup2\n      sload\n      dup2\n      0xffffffffffffffffffffffffffffffffffffffff\n      mul\n      not\n      and\n      swap1\n      dup4\n      0xffffffffffffffffffffffffffffffffffffffff\n      and\n      mul\n      or\n      swap1\n      sstore\n      pop\n        /* \"contracts/Price.sol\":1238:1340  function updateOwner(address newAddress) public onlyOwner {... */\n      pop\n      jump\t// out\n        /* \"contracts/Price.sol\":80:108  address payable public owner */\n    tag_22:\n      0x00\n      dup1\n      sload\n      swap1\n      0x0100\n      exp\n      swap1\n      div\n      0xffffffffffffffffffffffffffffffffffffffff\n      and\n      dup2\n      jump\t// out\n        /* \"contracts/Price.sol\":918:1036  function getCoinPrice(string memory _coin) public view returns(string memory) {... */\n    tag_27:\n        /* \"contracts/Price.sol\":981:994  string memory */\n      0x60\n        /* \"contracts/Price.sol\":1013:1022  coinPrice */\n      0x02\n        /* \"contracts/Price.sol\":1023:1028  _coin */\n      dup3\n        /* \"contracts/Price.sol\":1013:1029  coinPrice[_coin] */\n      mload(0x40)\n      tag_46\n      swap2\n      swap1\n      tag_47\n      jump\t// in\n    tag_46:\n      swap1\n      dup2\n      mstore\n      0x20\n      add\n      mload(0x40)\n      dup1\n      swap2\n      sub\n      swap1\n      keccak256\n        /* \"contracts/Price.sol\":1006:1029  return coinPrice[_coin] */\n      dup1\n      sload\n      tag_48\n      swap1\n      tag_49\n      jump\t// in\n    tag_48:\n      dup1\n      0x1f\n      add\n      0x20\n      dup1\n      swap2\n      div\n      mul\n      0x20\n      add\n      mload(0x40)\n      swap1\n      dup2\n      add\n      0x40\n      mstore\n      dup1\n      swap3\n      swap2\n      swap1\n      dup2\n      dup2\n      mstore\n      0x20\n      add\n      dup3\n      dup1\n      sload\n      tag_50\n      swap1\n      tag_49\n      jump\t// in\n    tag_50:\n      dup1\n      iszero\n      tag_51\n      jumpi\n      dup1\n      0x1f\n      lt\n      tag_52\n      jumpi\n      0x0100\n      dup1\n      dup4\n      sload\n      div\n      mul\n      dup4\n      mstore\n      swap2\n      0x20\n      add\n      swap2\n      jump(tag_51)\n    tag_52:\n      dup3\n      add\n      swap2\n      swap1\n      0x00\n      mstore\n      keccak256(0x00, 0x20)\n      swap1\n    tag_53:\n      dup2\n      sload\n      dup2\n      mstore\n      swap1\n      0x01\n      add\n      swap1\n      0x20\n      add\n      dup1\n      dup4\n      gt\n      tag_53\n      jumpi\n      dup3\n      swap1\n      sub\n      0x1f\n      and\n      dup3\n      add\n      swap2\n    tag_51:\n      pop\n      pop\n      pop\n      pop\n      pop\n      swap1\n      pop\n        /* \"contracts/Price.sol\":918:1036  function getCoinPrice(string memory _coin) public view returns(string memory) {... */\n      swap2\n      swap1\n      pop\n      jump\t// out\n        /* \"contracts/Price.sol\":1042:1232  function updateCoinPrice(string memory _coin, string memory _price) public {... */\n    tag_33:\n        /* \"contracts/Price.sol\":1152:1162  msg.sender */\n      caller\n        /* \"contracts/Price.sol\":1135:1163  owner == payable(msg.sender) */\n      0xffffffffffffffffffffffffffffffffffffffff\n      and\n        /* \"contracts/Price.sol\":1135:1140  owner */\n      0x00\n      dup1\n      sload\n      swap1\n      0x0100\n      exp\n      swap1\n      div\n      0xffffffffffffffffffffffffffffffffffffffff\n      and\n        /* \"contracts/Price.sol\":1135:1163  owner == payable(msg.sender) */\n      0xffffffffffffffffffffffffffffffffffffffff\n      and\n      eq\n        /* \"contracts/Price.sol\":1127:1190  require(owner == payable(msg.sender), \"You are not the owner!\") */\n      tag_55\n      jumpi\n      mload(0x40)\n      0x08c379a000000000000000000000000000000000000000000000000000000000\n      dup2\n      mstore\n      0x04\n      add\n      tag_56\n      swap1\n      tag_57\n      jump\t// in\n    tag_56:\n      mload(0x40)\n      dup1\n      swap2\n      sub\n      swap1\n      revert\n    tag_55:\n        /* \"contracts/Price.sol\":1219:1225  _price */\n      dup1\n        /* \"contracts/Price.sol\":1200:1209  coinPrice */\n      0x02\n        /* \"contracts/Price.sol\":1210:1215  _coin */\n      dup4\n        /* \"contracts/Price.sol\":1200:1216  coinPrice[_coin] */\n      mload(0x40)\n      tag_58\n      swap2\n      swap1\n      tag_47\n      jump\t// in\n    tag_58:\n      swap1\n      dup2\n      mstore\n      0x20\n      add\n      mload(0x40)\n      dup1\n      swap2\n      sub\n      swap1\n      keccak256\n        /* \"contracts/Price.sol\":1200:1225  coinPrice[_coin] = _price */\n      swap1\n      dup2\n      tag_59\n      swap2\n      swap1\n      tag_38\n      jump\t// in\n    tag_59:\n      pop\n        /* \"contracts/Price.sol\":1042:1232  function updateCoinPrice(string memory _coin, string memory _price) public {... */\n      pop\n      pop\n      jump\t// out\n        /* \"#utility.yul\":7:133   */\n    tag_60:\n        /* \"#utility.yul\":44:51   */\n      0x00\n        /* \"#utility.yul\":84:126   */\n      0xffffffffffffffffffffffffffffffffffffffff\n        /* \"#utility.yul\":77:82   */\n      dup3\n        /* \"#utility.yul\":73:127   */\n      and\n        /* \"#utility.yul\":62:127   */\n      swap1\n      pop\n        /* \"#utility.yul\":7:133   */\n      swap2\n      swap1\n      pop\n      jump\t// out\n        /* \"#utility.yul\":139:235   */\n    tag_61:\n        /* \"#utility.yul\":176:183   */\n      0x00\n        /* \"#utility.yul\":205:229   */\n      tag_110\n        /* \"#utility.yul\":223:228   */\n      dup3\n        /* \"#utility.yul\":205:229   */\n      tag_60\n      jump\t// in\n    tag_110:\n        /* \"#utility.yul\":194:229   */\n      swap1\n      pop\n        /* \"#utility.yul\":139:235   */\n      swap2\n      swap1\n      pop\n      jump\t// out\n        /* \"#utility.yul\":241:359   */\n    tag_62:\n        /* \"#utility.yul\":328:352   */\n      tag_112\n        /* \"#utility.yul\":346:351   */\n      dup2\n        /* \"#utility.yul\":328:352   */\n      tag_61\n      jump\t// in\n    tag_112:\n        /* \"#utility.yul\":323:326   */\n      dup3\n        /* \"#utility.yul\":316:353   */\n      mstore\n        /* \"#utility.yul\":241:359   */\n      pop\n      pop\n      jump\t// out\n        /* \"#utility.yul\":365:587   */\n    tag_12:\n        /* \"#utility.yul\":458:462   */\n      0x00\n        /* \"#utility.yul\":496:498   */\n      0x20\n        /* \"#utility.yul\":485:494   */\n      dup3\n        /* \"#utility.yul\":481:499   */\n      add\n        /* \"#utility.yul\":473:499   */\n      swap1\n      pop\n        /* \"#utility.yul\":509:580   */\n      tag_114\n        /* \"#utility.yul\":577:578   */\n      0x00\n        /* \"#utility.yul\":566:575   */\n      dup4\n        /* \"#utility.yul\":562:579   */\n      add\n        /* \"#utility.yul\":553:559   */\n      dup5\n        /* \"#utility.yul\":509:580   */\n      tag_62\n      jump\t// in\n    tag_114:\n        /* \"#utility.yul\":365:587   */\n      swap3\n      swap2\n      pop\n      pop\n      jump\t// out\n        /* \"#utility.yul\":593:668   */\n    tag_63:\n        /* \"#utility.yul\":626:632   */\n      0x00\n        /* \"#utility.yul\":659:661   */\n      0x40\n        /* \"#utility.yul\":653:662   */\n      mload\n        /* \"#utility.yul\":643:662   */\n      swap1\n      pop\n        /* \"#utility.yul\":593:668   */\n      swap1\n      jump\t// out\n        /* \"#utility.yul\":674:791   */\n    tag_64:\n        /* \"#utility.yul\":783:784   */\n      0x00\n        /* \"#utility.yul\":780:781   */\n      dup1\n        /* \"#utility.yul\":773:785   */\n      revert\n        /* \"#utility.yul\":797:914   */\n    tag_65:\n        /* \"#utility.yul\":906:907   */\n      0x00\n        /* \"#utility.yul\":903:904   */\n      dup1\n        /* \"#utility.yul\":896:908   */\n      revert\n        /* \"#utility.yul\":920:1037   */\n    tag_66:\n        /* \"#utility.yul\":1029:1030   */\n      0x00\n        /* \"#utility.yul\":1026:1027   */\n      dup1\n        /* \"#utility.yul\":1019:1031   */\n      revert\n        /* \"#utility.yul\":1043:1160   */\n    tag_67:\n        /* \"#utility.yul\":1152:1153   */\n      0x00\n        /* \"#utility.yul\":1149:1150   */\n      dup1\n        /* \"#utility.yul\":1142:1154   */\n      revert\n        /* \"#utility.yul\":1166:1268   */\n    tag_68:\n        /* \"#utility.yul\":1207:1213   */\n      0x00\n        /* \"#utility.yul\":1258:1260   */\n      0x1f\n        /* \"#utility.yul\":1254:1261   */\n      not\n        /* \"#utility.yul\":1249:1251   */\n      0x1f\n        /* \"#utility.yul\":1242:1247   */\n      dup4\n        /* \"#utility.yul\":1238:1252   */\n      add\n        /* \"#utility.yul\":1234:1262   */\n      and\n        /* \"#utility.yul\":1224:1262   */\n      swap1\n      pop\n        /* \"#utility.yul\":1166:1268   */\n      swap2\n      swap1\n      pop\n      jump\t// out\n        /* \"#utility.yul\":1274:1454   */\n    tag_69:\n        /* \"#utility.yul\":1322:1399   */\n      0x4e487b7100000000000000000000000000000000000000000000000000000000\n        /* \"#utility.yul\":1319:1320   */\n      0x00\n        /* \"#utility.yul\":1312:1400   */\n      mstore\n        /* \"#utility.yul\":1419:1423   */\n      0x41\n        /* \"#utility.yul\":1416:1417   */\n      0x04\n        /* \"#utility.yul\":1409:1424   */\n      mstore\n        /* \"#utility.yul\":1443:1447   */\n      0x24\n        /* \"#utility.yul\":1440:1441   */\n      0x00\n        /* \"#utility.yul\":1433:1448   */\n      revert\n        /* \"#utility.yul\":1460:1741   */\n    tag_70:\n        /* \"#utility.yul\":1543:1570   */\n      tag_123\n        /* \"#utility.yul\":1565:1569   */\n      dup3\n        /* \"#utility.yul\":1543:1570   */\n      tag_68\n      jump\t// in\n    tag_123:\n        /* \"#utility.yul\":1535:1541   */\n      dup2\n        /* \"#utility.yul\":1531:1571   */\n      add\n        /* \"#utility.yul\":1673:1679   */\n      dup2\n        /* \"#utility.yul\":1661:1671   */\n      dup2\n        /* \"#utility.yul\":1658:1680   */\n      lt\n        /* \"#utility.yul\":1637:1655   */\n      0xffffffffffffffff\n        /* \"#utility.yul\":1625:1635   */\n      dup3\n        /* \"#utility.yul\":1622:1656   */\n      gt\n        /* \"#utility.yul\":1619:1681   */\n      or\n        /* \"#utility.yul\":1616:1704   */\n      iszero\n      tag_124\n      jumpi\n        /* \"#utility.yul\":1684:1702   */\n      tag_125\n      tag_69\n      jump\t// in\n    tag_125:\n        /* \"#utility.yul\":1616:1704   */\n    tag_124:\n        /* \"#utility.yul\":1724:1734   */\n      dup1\n        /* \"#utility.yul\":1720:1722   */\n      0x40\n        /* \"#utility.yul\":1713:1735   */\n      mstore\n        /* \"#utility.yul\":1503:1741   */\n      pop\n        /* \"#utility.yul\":1460:1741   */\n      pop\n      pop\n      jump\t// out\n        /* \"#utility.yul\":1747:1876   */\n    tag_71:\n        /* \"#utility.yul\":1781:1787   */\n      0x00\n        /* \"#utility.yul\":1808:1828   */\n      tag_127\n      tag_63\n      jump\t// in\n    tag_127:\n        /* \"#utility.yul\":1798:1828   */\n      swap1\n      pop\n        /* \"#utility.yul\":1837:1870   */\n      tag_128\n        /* \"#utility.yul\":1865:1869   */\n      dup3\n        /* \"#utility.yul\":1857:1863   */\n      dup3\n        /* \"#utility.yul\":1837:1870   */\n      tag_70\n      jump\t// in\n    tag_128:\n        /* \"#utility.yul\":1747:1876   */\n      swap2\n      swap1\n      pop\n      jump\t// out\n        /* \"#utility.yul\":1882:2190   */\n    tag_72:\n        /* \"#utility.yul\":1944:1948   */\n      0x00\n        /* \"#utility.yul\":2034:2052   */\n      0xffffffffffffffff\n        /* \"#utility.yul\":2026:2032   */\n      dup3\n        /* \"#utility.yul\":2023:2053   */\n      gt\n        /* \"#utility.yul\":2020:2076   */\n      iszero\n      tag_130\n      jumpi\n        /* \"#utility.yul\":2056:2074   */\n      tag_131\n      tag_69\n      jump\t// in\n    tag_131:\n        /* \"#utility.yul\":2020:2076   */\n    tag_130:\n        /* \"#utility.yul\":2094:2123   */\n      tag_132\n        /* \"#utility.yul\":2116:2122   */\n      dup3\n        /* \"#utility.yul\":2094:2123   */\n      tag_68\n      jump\t// in\n    tag_132:\n        /* \"#utility.yul\":2086:2123   */\n      swap1\n      pop\n        /* \"#utility.yul\":2178:2182   */\n      0x20\n        /* \"#utility.yul\":2172:2176   */\n      dup2\n        /* \"#utility.yul\":2168:2183   */\n      add\n        /* \"#utility.yul\":2160:2183   */\n      swap1\n      pop\n        /* \"#utility.yul\":1882:2190   */\n      swap2\n      swap1\n      pop\n      jump\t// out\n        /* \"#utility.yul\":2196:2342   */\n    tag_73:\n        /* \"#utility.yul\":2293:2299   */\n      dup3\n        /* \"#utility.yul\":2288:2291   */\n      dup2\n        /* \"#utility.yul\":2283:2286   */\n      dup4\n        /* \"#utility.yul\":2270:2300   */\n      calldatacopy\n        /* \"#utility.yul\":2334:2335   */\n      0x00\n        /* \"#utility.yul\":2325:2331   */\n      dup4\n        /* \"#utility.yul\":2320:2323   */\n      dup4\n        /* \"#utility.yul\":2316:2332   */\n      add\n        /* \"#utility.yul\":2309:2336   */\n      mstore\n        /* \"#utility.yul\":2196:2342   */\n      pop\n      pop\n      pop\n      jump\t// out\n        /* \"#utility.yul\":2348:2773   */\n    tag_74:\n        /* \"#utility.yul\":2426:2431   */\n      0x00\n        /* \"#utility.yul\":2451:2517   */\n      tag_135\n        /* \"#utility.yul\":2467:2516   */\n      tag_136\n        /* \"#utility.yul\":2509:2515   */\n      dup5\n        /* \"#utility.yul\":2467:2516   */\n      tag_72\n      jump\t// in\n    tag_136:\n        /* \"#utility.yul\":2451:2517   */\n      tag_71\n      jump\t// in\n    tag_135:\n        /* \"#utility.yul\":2442:2517   */\n      swap1\n      pop\n        /* \"#utility.yul\":2540:2546   */\n      dup3\n        /* \"#utility.yul\":2533:2538   */\n      dup2\n        /* \"#utility.yul\":2526:2547   */\n      mstore\n        /* \"#utility.yul\":2578:2582   */\n      0x20\n        /* \"#utility.yul\":2571:2576   */\n      dup2\n        /* \"#utility.yul\":2567:2583   */\n      add\n        /* \"#utility.yul\":2616:2619   */\n      dup5\n        /* \"#utility.yul\":2607:2613   */\n      dup5\n        /* \"#utility.yul\":2602:2605   */\n      dup5\n        /* \"#utility.yul\":2598:2614   */\n      add\n        /* \"#utility.yul\":2595:2620   */\n      gt\n        /* \"#utility.yul\":2592:2704   */\n      iszero\n      tag_137\n      jumpi\n        /* \"#utility.yul\":2623:2702   */\n      tag_138\n      tag_67\n      jump\t// in\n    tag_138:\n        /* \"#utility.yul\":2592:2704   */\n    tag_137:\n        /* \"#utility.yul\":2713:2767   */\n      tag_139\n        /* \"#utility.yul\":2760:2766   */\n      dup5\n        /* \"#utility.yul\":2755:2758   */\n      dup3\n        /* \"#utility.yul\":2750:2753   */\n      dup6\n        /* \"#utility.yul\":2713:2767   */\n      tag_73\n      jump\t// in\n    tag_139:\n        /* \"#utility.yul\":2432:2773   */\n      pop\n        /* \"#utility.yul\":2348:2773   */\n      swap4\n      swap3\n      pop\n      pop\n      pop\n      jump\t// out\n        /* \"#utility.yul\":2793:3133   */\n    tag_75:\n        /* \"#utility.yul\":2849:2854   */\n      0x00\n        /* \"#utility.yul\":2898:2901   */\n      dup3\n        /* \"#utility.yul\":2891:2895   */\n      0x1f\n        /* \"#utility.yul\":2883:2889   */\n      dup4\n        /* \"#utility.yul\":2879:2896   */\n      add\n        /* \"#utility.yul\":2875:2902   */\n      slt\n        /* \"#utility.yul\":2865:2987   */\n      tag_141\n      jumpi\n        /* \"#utility.yul\":2906:2985   */\n      tag_142\n      tag_66\n      jump\t// in\n    tag_142:\n        /* \"#utility.yul\":2865:2987   */\n    tag_141:\n        /* \"#utility.yul\":3023:3029   */\n      dup2\n        /* \"#utility.yul\":3010:3030   */\n      calldataload\n        /* \"#utility.yul\":3048:3127   */\n      tag_143\n        /* \"#utility.yul\":3123:3126   */\n      dup5\n        /* \"#utility.yul\":3115:3121   */\n      dup3\n        /* \"#utility.yul\":3108:3112   */\n      0x20\n        /* \"#utility.yul\":3100:3106   */\n      dup7\n        /* \"#utility.yul\":3096:3113   */\n      add\n        /* \"#utility.yul\":3048:3127   */\n      tag_74\n      jump\t// in\n    tag_143:\n        /* \"#utility.yul\":3039:3127   */\n      swap2\n      pop\n        /* \"#utility.yul\":2855:3133   */\n      pop\n        /* \"#utility.yul\":2793:3133   */\n      swap3\n      swap2\n      pop\n      pop\n      jump\t// out\n        /* \"#utility.yul\":3139:3648   */\n    tag_15:\n        /* \"#utility.yul\":3208:3214   */\n      0x00\n        /* \"#utility.yul\":3257:3259   */\n      0x20\n        /* \"#utility.yul\":3245:3254   */\n      dup3\n        /* \"#utility.yul\":3236:3243   */\n      dup5\n        /* \"#utility.yul\":3232:3255   */\n      sub\n        /* \"#utility.yul\":3228:3260   */\n      slt\n        /* \"#utility.yul\":3225:3344   */\n      iszero\n      tag_145\n      jumpi\n        /* \"#utility.yul\":3263:3342   */\n      tag_146\n      tag_64\n      jump\t// in\n    tag_146:\n        /* \"#utility.yul\":3225:3344   */\n    tag_145:\n        /* \"#utility.yul\":3411:3412   */\n      0x00\n        /* \"#utility.yul\":3400:3409   */\n      dup3\n        /* \"#utility.yul\":3396:3413   */\n      add\n        /* \"#utility.yul\":3383:3414   */\n      calldataload\n        /* \"#utility.yul\":3441:3459   */\n      0xffffffffffffffff\n        /* \"#utility.yul\":3433:3439   */\n      dup2\n        /* \"#utility.yul\":3430:3460   */\n      gt\n        /* \"#utility.yul\":3427:3544   */\n      iszero\n      tag_147\n      jumpi\n        /* \"#utility.yul\":3463:3542   */\n      tag_148\n      tag_65\n      jump\t// in\n    tag_148:\n        /* \"#utility.yul\":3427:3544   */\n    tag_147:\n        /* \"#utility.yul\":3568:3631   */\n      tag_149\n        /* \"#utility.yul\":3623:3630   */\n      dup5\n        /* \"#utility.yul\":3614:3620   */\n      dup3\n        /* \"#utility.yul\":3603:3612   */\n      dup6\n        /* \"#utility.yul\":3599:3621   */\n      add\n        /* \"#utility.yul\":3568:3631   */\n      tag_75\n      jump\t// in\n    tag_149:\n        /* \"#utility.yul\":3558:3631   */\n      swap2\n      pop\n        /* \"#utility.yul\":3354:3641   */\n      pop\n        /* \"#utility.yul\":3139:3648   */\n      swap3\n      swap2\n      pop\n      pop\n      jump\t// out\n        /* \"#utility.yul\":3654:3776   */\n    tag_76:\n        /* \"#utility.yul\":3727:3751   */\n      tag_151\n        /* \"#utility.yul\":3745:3750   */\n      dup2\n        /* \"#utility.yul\":3727:3751   */\n      tag_61\n      jump\t// in\n    tag_151:\n        /* \"#utility.yul\":3720:3725   */\n      dup2\n        /* \"#utility.yul\":3717:3752   */\n      eq\n        /* \"#utility.yul\":3707:3770   */\n      tag_152\n      jumpi\n        /* \"#utility.yul\":3766:3767   */\n      0x00\n        /* \"#utility.yul\":3763:3764   */\n      dup1\n        /* \"#utility.yul\":3756:3768   */\n      revert\n        /* \"#utility.yul\":3707:3770   */\n    tag_152:\n        /* \"#utility.yul\":3654:3776   */\n      pop\n      jump\t// out\n        /* \"#utility.yul\":3782:3921   */\n    tag_77:\n        /* \"#utility.yul\":3828:3833   */\n      0x00\n        /* \"#utility.yul\":3866:3872   */\n      dup2\n        /* \"#utility.yul\":3853:3873   */\n      calldataload\n        /* \"#utility.yul\":3844:3873   */\n      swap1\n      pop\n        /* \"#utility.yul\":3882:3915   */\n      tag_154\n        /* \"#utility.yul\":3909:3914   */\n      dup2\n        /* \"#utility.yul\":3882:3915   */\n      tag_76\n      jump\t// in\n    tag_154:\n        /* \"#utility.yul\":3782:3921   */\n      swap3\n      swap2\n      pop\n      pop\n      jump\t// out\n        /* \"#utility.yul\":3927:4256   */\n    tag_19:\n        /* \"#utility.yul\":3986:3992   */\n      0x00\n        /* \"#utility.yul\":4035:4037   */\n      0x20\n        /* \"#utility.yul\":4023:4032   */\n      dup3\n        /* \"#utility.yul\":4014:4021   */\n      dup5\n        /* \"#utility.yul\":4010:4033   */\n      sub\n        /* \"#utility.yul\":4006:4038   */\n      slt\n        /* \"#utility.yul\":4003:4122   */\n      iszero\n      tag_156\n      jumpi\n        /* \"#utility.yul\":4041:4120   */\n      tag_157\n      tag_64\n      jump\t// in\n    tag_157:\n        /* \"#utility.yul\":4003:4122   */\n    tag_156:\n        /* \"#utility.yul\":4161:4162   */\n      0x00\n        /* \"#utility.yul\":4186:4239   */\n      tag_158\n        /* \"#utility.yul\":4231:4238   */\n      dup5\n        /* \"#utility.yul\":4222:4228   */\n      dup3\n        /* \"#utility.yul\":4211:4220   */\n      dup6\n        /* \"#utility.yul\":4207:4229   */\n      add\n        /* \"#utility.yul\":4186:4239   */\n      tag_77\n      jump\t// in\n    tag_158:\n        /* \"#utility.yul\":4176:4239   */\n      swap2\n      pop\n        /* \"#utility.yul\":4132:4249   */\n      pop\n        /* \"#utility.yul\":3927:4256   */\n      swap3\n      swap2\n      pop\n      pop\n      jump\t// out\n        /* \"#utility.yul\":4262:4366   */\n    tag_78:\n        /* \"#utility.yul\":4307:4314   */\n      0x00\n        /* \"#utility.yul\":4336:4360   */\n      tag_160\n        /* \"#utility.yul\":4354:4359   */\n      dup3\n        /* \"#utility.yul\":4336:4360   */\n      tag_60\n      jump\t// in\n    tag_160:\n        /* \"#utility.yul\":4325:4360   */\n      swap1\n      pop\n        /* \"#utility.yul\":4262:4366   */\n      swap2\n      swap1\n      pop\n      jump\t// out\n        /* \"#utility.yul\":4372:4514   */\n    tag_79:\n        /* \"#utility.yul\":4475:4507   */\n      tag_162\n        /* \"#utility.yul\":4501:4506   */\n      dup2\n        /* \"#utility.yul\":4475:4507   */\n      tag_78\n      jump\t// in\n    tag_162:\n        /* \"#utility.yul\":4470:4473   */\n      dup3\n        /* \"#utility.yul\":4463:4508   */\n      mstore\n        /* \"#utility.yul\":4372:4514   */\n      pop\n      pop\n      jump\t// out\n        /* \"#utility.yul\":4520:4774   */\n    tag_24:\n        /* \"#utility.yul\":4629:4633   */\n      0x00\n        /* \"#utility.yul\":4667:4669   */\n      0x20\n        /* \"#utility.yul\":4656:4665   */\n      dup3\n        /* \"#utility.yul\":4652:4670   */\n      add\n        /* \"#utility.yul\":4644:4670   */\n      swap1\n      pop\n        /* \"#utility.yul\":4680:4767   */\n      tag_164\n        /* \"#utility.yul\":4764:4765   */\n      0x00\n        /* \"#utility.yul\":4753:4762   */\n      dup4\n        /* \"#utility.yul\":4749:4766   */\n      add\n        /* \"#utility.yul\":4740:4746   */\n      dup5\n        /* \"#utility.yul\":4680:4767   */\n      tag_79\n      jump\t// in\n    tag_164:\n        /* \"#utility.yul\":4520:4774   */\n      swap3\n      swap2\n      pop\n      pop\n      jump\t// out\n        /* \"#utility.yul\":4780:4879   */\n    tag_80:\n        /* \"#utility.yul\":4832:4838   */\n      0x00\n        /* \"#utility.yul\":4866:4871   */\n      dup2\n        /* \"#utility.yul\":4860:4872   */\n      mload\n        /* \"#utility.yul\":4850:4872   */\n      swap1\n      pop\n        /* \"#utility.yul\":4780:4879   */\n      swap2\n      swap1\n      pop\n      jump\t// out\n        /* \"#utility.yul\":4885:5054   */\n    tag_81:\n        /* \"#utility.yul\":4969:4980   */\n      0x00\n        /* \"#utility.yul\":5003:5009   */\n      dup3\n        /* \"#utility.yul\":4998:5001   */\n      dup3\n        /* \"#utility.yul\":4991:5010   */\n      mstore\n        /* \"#utility.yul\":5043:5047   */\n      0x20\n        /* \"#utility.yul\":5038:5041   */\n      dup3\n        /* \"#utility.yul\":5034:5048   */\n      add\n        /* \"#utility.yul\":5019:5048   */\n      swap1\n      pop\n        /* \"#utility.yul\":4885:5054   */\n      swap3\n      swap2\n      pop\n      pop\n      jump\t// out\n        /* \"#utility.yul\":5060:5306   */\n    tag_82:\n        /* \"#utility.yul\":5141:5142   */\n      0x00\n        /* \"#utility.yul\":5151:5264   */\n    tag_168:\n        /* \"#utility.yul\":5165:5171   */\n      dup4\n        /* \"#utility.yul\":5162:5163   */\n      dup2\n        /* \"#utility.yul\":5159:5172   */\n      lt\n        /* \"#utility.yul\":5151:5264   */\n      iszero\n      tag_170\n      jumpi\n        /* \"#utility.yul\":5250:5251   */\n      dup1\n        /* \"#utility.yul\":5245:5248   */\n      dup3\n        /* \"#utility.yul\":5241:5252   */\n      add\n        /* \"#utility.yul\":5235:5253   */\n      mload\n        /* \"#utility.yul\":5231:5232   */\n      dup2\n        /* \"#utility.yul\":5226:5229   */\n      dup5\n        /* \"#utility.yul\":5222:5233   */\n      add\n        /* \"#utility.yul\":5215:5254   */\n      mstore\n        /* \"#utility.yul\":5187:5189   */\n      0x20\n        /* \"#utility.yul\":5184:5185   */\n      dup2\n        /* \"#utility.yul\":5180:5190   */\n      add\n        /* \"#utility.yul\":5175:5190   */\n      swap1\n      pop\n        /* \"#utility.yul\":5151:5264   */\n      jump(tag_168)\n    tag_170:\n        /* \"#utility.yul\":5298:5299   */\n      0x00\n        /* \"#utility.yul\":5289:5295   */\n      dup5\n        /* \"#utility.yul\":5284:5287   */\n      dup5\n        /* \"#utility.yul\":5280:5296   */\n      add\n        /* \"#utility.yul\":5273:5300   */\n      mstore\n        /* \"#utility.yul\":5122:5306   */\n      pop\n        /* \"#utility.yul\":5060:5306   */\n      pop\n      pop\n      pop\n      jump\t// out\n        /* \"#utility.yul\":5312:5689   */\n    tag_83:\n        /* \"#utility.yul\":5400:5403   */\n      0x00\n        /* \"#utility.yul\":5428:5467   */\n      tag_172\n        /* \"#utility.yul\":5461:5466   */\n      dup3\n        /* \"#utility.yul\":5428:5467   */\n      tag_80\n      jump\t// in\n    tag_172:\n        /* \"#utility.yul\":5483:5554   */\n      tag_173\n        /* \"#utility.yul\":5547:5553   */\n      dup2\n        /* \"#utility.yul\":5542:5545   */\n      dup6\n        /* \"#utility.yul\":5483:5554   */\n      tag_81\n      jump\t// in\n    tag_173:\n        /* \"#utility.yul\":5476:5554   */\n      swap4\n      pop\n        /* \"#utility.yul\":5563:5628   */\n      tag_174\n        /* \"#utility.yul\":5621:5627   */\n      dup2\n        /* \"#utility.yul\":5616:5619   */\n      dup6\n        /* \"#utility.yul\":5609:5613   */\n      0x20\n        /* \"#utility.yul\":5602:5607   */\n      dup7\n        /* \"#utility.yul\":5598:5614   */\n      add\n        /* \"#utility.yul\":5563:5628   */\n      tag_82\n      jump\t// in\n    tag_174:\n        /* \"#utility.yul\":5653:5682   */\n      tag_175\n        /* \"#utility.yul\":5675:5681   */\n      dup2\n        /* \"#utility.yul\":5653:5682   */\n      tag_68\n      jump\t// in\n    tag_175:\n        /* \"#utility.yul\":5648:5651   */\n      dup5\n        /* \"#utility.yul\":5644:5683   */\n      add\n        /* \"#utility.yul\":5637:5683   */\n      swap2\n      pop\n        /* \"#utility.yul\":5404:5689   */\n      pop\n        /* \"#utility.yul\":5312:5689   */\n      swap3\n      swap2\n      pop\n      pop\n      jump\t// out\n        /* \"#utility.yul\":5695:6008   */\n    tag_29:\n        /* \"#utility.yul\":5808:5812   */\n      0x00\n        /* \"#utility.yul\":5846:5848   */\n      0x20\n        /* \"#utility.yul\":5835:5844   */\n      dup3\n        /* \"#utility.yul\":5831:5849   */\n      add\n        /* \"#utility.yul\":5823:5849   */\n      swap1\n      pop\n        /* \"#utility.yul\":5895:5904   */\n      dup2\n        /* \"#utility.yul\":5889:5893   */\n      dup2\n        /* \"#utility.yul\":5885:5905   */\n      sub\n        /* \"#utility.yul\":5881:5882   */\n      0x00\n        /* \"#utility.yul\":5870:5879   */\n      dup4\n        /* \"#utility.yul\":5866:5883   */\n      add\n        /* \"#utility.yul\":5859:5906   */\n      mstore\n        /* \"#utility.yul\":5923:6001   */\n      tag_177\n        /* \"#utility.yul\":5996:6000   */\n      dup2\n        /* \"#utility.yul\":5987:5993   */\n      dup5\n        /* \"#utility.yul\":5923:6001   */\n      tag_83\n      jump\t// in\n    tag_177:\n        /* \"#utility.yul\":5915:6001   */\n      swap1\n      pop\n        /* \"#utility.yul\":5695:6008   */\n      swap3\n      swap2\n      pop\n      pop\n      jump\t// out\n        /* \"#utility.yul\":6014:6848   */\n    tag_32:\n        /* \"#utility.yul\":6102:6108   */\n      0x00\n        /* \"#utility.yul\":6110:6116   */\n      dup1\n        /* \"#utility.yul\":6159:6161   */\n      0x40\n        /* \"#utility.yul\":6147:6156   */\n      dup4\n        /* \"#utility.yul\":6138:6145   */\n      dup6\n        /* \"#utility.yul\":6134:6157   */\n      sub\n        /* \"#utility.yul\":6130:6162   */\n      slt\n        /* \"#utility.yul\":6127:6246   */\n      iszero\n      tag_179\n      jumpi\n        /* \"#utility.yul\":6165:6244   */\n      tag_180\n      tag_64\n      jump\t// in\n    tag_180:\n        /* \"#utility.yul\":6127:6246   */\n    tag_179:\n        /* \"#utility.yul\":6313:6314   */\n      0x00\n        /* \"#utility.yul\":6302:6311   */\n      dup4\n        /* \"#utility.yul\":6298:6315   */\n      add\n        /* \"#utility.yul\":6285:6316   */\n      calldataload\n        /* \"#utility.yul\":6343:6361   */\n      0xffffffffffffffff\n        /* \"#utility.yul\":6335:6341   */\n      dup2\n        /* \"#utility.yul\":6332:6362   */\n      gt\n        /* \"#utility.yul\":6329:6446   */\n      iszero\n      tag_181\n      jumpi\n        /* \"#utility.yul\":6365:6444   */\n      tag_182\n      tag_65\n      jump\t// in\n    tag_182:\n        /* \"#utility.yul\":6329:6446   */\n    tag_181:\n        /* \"#utility.yul\":6470:6533   */\n      tag_183\n        /* \"#utility.yul\":6525:6532   */\n      dup6\n        /* \"#utility.yul\":6516:6522   */\n      dup3\n        /* \"#utility.yul\":6505:6514   */\n      dup7\n        /* \"#utility.yul\":6501:6523   */\n      add\n        /* \"#utility.yul\":6470:6533   */\n      tag_75\n      jump\t// in\n    tag_183:\n        /* \"#utility.yul\":6460:6533   */\n      swap3\n      pop\n        /* \"#utility.yul\":6256:6543   */\n      pop\n        /* \"#utility.yul\":6610:6612   */\n      0x20\n        /* \"#utility.yul\":6599:6608   */\n      dup4\n        /* \"#utility.yul\":6595:6613   */\n      add\n        /* \"#utility.yul\":6582:6614   */\n      calldataload\n        /* \"#utility.yul\":6641:6659   */\n      0xffffffffffffffff\n        /* \"#utility.yul\":6633:6639   */\n      dup2\n        /* \"#utility.yul\":6630:6660   */\n      gt\n        /* \"#utility.yul\":6627:6744   */\n      iszero\n      tag_184\n      jumpi\n        /* \"#utility.yul\":6663:6742   */\n      tag_185\n      tag_65\n      jump\t// in\n    tag_185:\n        /* \"#utility.yul\":6627:6744   */\n    tag_184:\n        /* \"#utility.yul\":6768:6831   */\n      tag_186\n        /* \"#utility.yul\":6823:6830   */\n      dup6\n        /* \"#utility.yul\":6814:6820   */\n      dup3\n        /* \"#utility.yul\":6803:6812   */\n      dup7\n        /* \"#utility.yul\":6799:6821   */\n      add\n        /* \"#utility.yul\":6768:6831   */\n      tag_75\n      jump\t// in\n    tag_186:\n        /* \"#utility.yul\":6758:6831   */\n      swap2\n      pop\n        /* \"#utility.yul\":6553:6841   */\n      pop\n        /* \"#utility.yul\":6014:6848   */\n      swap3\n      pop\n      swap3\n      swap1\n      pop\n      jump\t// out\n        /* \"#utility.yul\":6854:7034   */\n    tag_84:\n        /* \"#utility.yul\":6902:6979   */\n      0x4e487b7100000000000000000000000000000000000000000000000000000000\n        /* \"#utility.yul\":6899:6900   */\n      0x00\n        /* \"#utility.yul\":6892:6980   */\n      mstore\n        /* \"#utility.yul\":6999:7003   */\n      0x22\n        /* \"#utility.yul\":6996:6997   */\n      0x04\n        /* \"#utility.yul\":6989:7004   */\n      mstore\n        /* \"#utility.yul\":7023:7027   */\n      0x24\n        /* \"#utility.yul\":7020:7021   */\n      0x00\n        /* \"#utility.yul\":7013:7028   */\n      revert\n        /* \"#utility.yul\":7040:7360   */\n    tag_49:\n        /* \"#utility.yul\":7084:7090   */\n      0x00\n        /* \"#utility.yul\":7121:7122   */\n      0x02\n        /* \"#utility.yul\":7115:7119   */\n      dup3\n        /* \"#utility.yul\":7111:7123   */\n      div\n        /* \"#utility.yul\":7101:7123   */\n      swap1\n      pop\n        /* \"#utility.yul\":7168:7169   */\n      0x01\n        /* \"#utility.yul\":7162:7166   */\n      dup3\n        /* \"#utility.yul\":7158:7170   */\n      and\n        /* \"#utility.yul\":7189:7207   */\n      dup1\n        /* \"#utility.yul\":7179:7260   */\n      tag_189\n      jumpi\n        /* \"#utility.yul\":7245:7249   */\n      0x7f\n        /* \"#utility.yul\":7237:7243   */\n      dup3\n        /* \"#utility.yul\":7233:7250   */\n      and\n        /* \"#utility.yul\":7223:7250   */\n      swap2\n      pop\n        /* \"#utility.yul\":7179:7260   */\n    tag_189:\n        /* \"#utility.yul\":7307:7309   */\n      0x20\n        /* \"#utility.yul\":7299:7305   */\n      dup3\n        /* \"#utility.yul\":7296:7310   */\n      lt\n        /* \"#utility.yul\":7276:7294   */\n      dup2\n        /* \"#utility.yul\":7273:7311   */\n      sub\n        /* \"#utility.yul\":7270:7354   */\n      tag_190\n      jumpi\n        /* \"#utility.yul\":7326:7344   */\n      tag_191\n      tag_84\n      jump\t// in\n    tag_191:\n        /* \"#utility.yul\":7270:7354   */\n    tag_190:\n        /* \"#utility.yul\":7091:7360   */\n      pop\n        /* \"#utility.yul\":7040:7360   */\n      swap2\n      swap1\n      pop\n      jump\t// out\n        /* \"#utility.yul\":7366:7507   */\n    tag_85:\n        /* \"#utility.yul\":7415:7419   */\n      0x00\n        /* \"#utility.yul\":7438:7441   */\n      dup2\n        /* \"#utility.yul\":7430:7441   */\n      swap1\n      pop\n        /* \"#utility.yul\":7461:7464   */\n      dup2\n        /* \"#utility.yul\":7458:7459   */\n      0x00\n        /* \"#utility.yul\":7451:7465   */\n      mstore\n        /* \"#utility.yul\":7495:7499   */\n      0x20\n        /* \"#utility.yul\":7492:7493   */\n      0x00\n        /* \"#utility.yul\":7482:7500   */\n      keccak256\n        /* \"#utility.yul\":7474:7500   */\n      swap1\n      pop\n        /* \"#utility.yul\":7366:7507   */\n      swap2\n      swap1\n      pop\n      jump\t// out\n        /* \"#utility.yul\":7513:7606   */\n    tag_86:\n        /* \"#utility.yul\":7550:7556   */\n      0x00\n        /* \"#utility.yul\":7597:7599   */\n      0x20\n        /* \"#utility.yul\":7592:7594   */\n      0x1f\n        /* \"#utility.yul\":7585:7590   */\n      dup4\n        /* \"#utility.yul\":7581:7595   */\n      add\n        /* \"#utility.yul\":7577:7600   */\n      div\n        /* \"#utility.yul\":7567:7600   */\n      swap1\n      pop\n        /* \"#utility.yul\":7513:7606   */\n      swap2\n      swap1\n      pop\n      jump\t// out\n        /* \"#utility.yul\":7612:7719   */\n    tag_87:\n        /* \"#utility.yul\":7656:7664   */\n      0x00\n        /* \"#utility.yul\":7706:7711   */\n      dup3\n        /* \"#utility.yul\":7700:7704   */\n      dup3\n        /* \"#utility.yul\":7696:7712   */\n      shl\n        /* \"#utility.yul\":7675:7712   */\n      swap1\n      pop\n        /* \"#utility.yul\":7612:7719   */\n      swap3\n      swap2\n      pop\n      pop\n      jump\t// out\n        /* \"#utility.yul\":7725:8118   */\n    tag_88:\n        /* \"#utility.yul\":7794:7800   */\n      0x00\n        /* \"#utility.yul\":7844:7845   */\n      0x08\n        /* \"#utility.yul\":7832:7842   */\n      dup4\n        /* \"#utility.yul\":7828:7846   */\n      mul\n        /* \"#utility.yul\":7867:7964   */\n      tag_196\n        /* \"#utility.yul\":7897:7963   */\n      0xffffffffffffffffffffffffffffffffffffffffffffffffffffffffffffffff\n        /* \"#utility.yul\":7886:7895   */\n      dup3\n        /* \"#utility.yul\":7867:7964   */\n      tag_87\n      jump\t// in\n    tag_196:\n        /* \"#utility.yul\":7985:8024   */\n      tag_197\n        /* \"#utility.yul\":8015:8023   */\n      dup7\n        /* \"#utility.yul\":8004:8013   */\n      dup4\n        /* \"#utility.yul\":7985:8024   */\n      tag_87\n      jump\t// in\n    tag_197:\n        /* \"#utility.yul\":7973:8024   */\n      swap6\n      pop\n        /* \"#utility.yul\":8057:8061   */\n      dup1\n        /* \"#utility.yul\":8053:8062   */\n      not\n        /* \"#utility.yul\":8046:8051   */\n      dup5\n        /* \"#utility.yul\":8042:8063   */\n      and\n        /* \"#utility.yul\":8033:8063   */\n      swap4\n      pop\n        /* \"#utility.yul\":8106:8110   */\n      dup1\n        /* \"#utility.yul\":8096:8104   */\n      dup7\n        /* \"#utility.yul\":8092:8111   */\n      and\n        /* \"#utility.yul\":8085:8090   */\n      dup5\n        /* \"#utility.yul\":8082:8112   */\n      or\n        /* \"#utility.yul\":8072:8112   */\n      swap3\n      pop\n        /* \"#utility.yul\":7801:8118   */\n      pop\n      pop\n        /* \"#utility.yul\":7725:8118   */\n      swap4\n      swap3\n      pop\n      pop\n      pop\n      jump\t// out\n        /* \"#utility.yul\":8124:8201   */\n    tag_89:\n        /* \"#utility.yul\":8161:8168   */\n      0x00\n        /* \"#utility.yul\":8190:8195   */\n      dup2\n        /* \"#utility.yul\":8179:8195   */\n      swap1\n      pop\n        /* \"#utility.yul\":8124:8201   */\n      swap2\n      swap1\n      pop\n      jump\t// out\n        /* \"#utility.yul\":8207:8267   */\n    tag_90:\n        /* \"#utility.yul\":8235:8238   */\n      0x00\n        /* \"#utility.yul\":8256:8261   */\n      dup2\n        /* \"#utility.yul\":8249:8261   */\n      swap1\n      pop\n        /* \"#utility.yul\":8207:8267   */\n      swap2\n      swap1\n      pop\n      jump\t// out\n        /* \"#utility.yul\":8273:8415   */\n    tag_91:\n        /* \"#utility.yul\":8323:8332   */\n      0x00\n        /* \"#utility.yul\":8356:8409   */\n      tag_201\n        /* \"#utility.yul\":8374:8408   */\n      tag_202\n        /* \"#utility.yul\":8383:8407   */\n      tag_203\n        /* \"#utility.yul\":8401:8406   */\n      dup5\n        /* \"#utility.yul\":8383:8407   */\n      tag_89\n      jump\t// in\n    tag_203:\n        /* \"#utility.yul\":8374:8408   */\n      tag_90\n      jump\t// in\n    tag_202:\n        /* \"#utility.yul\":8356:8409   */\n      tag_89\n      jump\t// in\n    tag_201:\n        /* \"#utility.yul\":8343:8409   */\n      swap1\n      pop\n        /* \"#utility.yul\":8273:8415   */\n      swap2\n      swap1\n      pop\n      jump\t// out\n        /* \"#utility.yul\":8421:8496   */\n    tag_92:\n        /* \"#utility.yul\":8464:8467   */\n      0x00\n        /* \"#utility.yul\":8485:8490   */\n      dup2\n        /* \"#utility.yul\":8478:8490   */\n      swap1\n      pop\n        /* \"#utility.yul\":8421:8496   */\n      swap2\n      swap1\n      pop\n      jump\t// out\n        /* \"#utility.yul\":8502:8771   */\n    tag_93:\n        /* \"#utility.yul\":8612:8651   */\n      tag_206\n        /* \"#utility.yul\":8643:8650   */\n      dup4\n        /* \"#utility.yul\":8612:8651   */\n      tag_91\n      jump\t// in\n    tag_206:\n        /* \"#utility.yul\":8673:8764   */\n      tag_207\n        /* \"#utility.yul\":8722:8763   */\n      tag_208\n        /* \"#utility.yul\":8746:8762   */\n      dup3\n        /* \"#utility.yul\":8722:8763   */\n      tag_92\n      jump\t// in\n    tag_208:\n        /* \"#utility.yul\":8714:8720   */\n      dup5\n        /* \"#utility.yul\":8707:8711   */\n      dup5\n        /* \"#utility.yul\":8701:8712   */\n      sload\n        /* \"#utility.yul\":8673:8764   */\n      tag_88\n      jump\t// in\n    tag_207:\n        /* \"#utility.yul\":8667:8671   */\n      dup3\n        /* \"#utility.yul\":8660:8765   */\n      sstore\n        /* \"#utility.yul\":8578:8771   */\n      pop\n        /* \"#utility.yul\":8502:8771   */\n      pop\n      pop\n      pop\n      jump\t// out\n        /* \"#utility.yul\":8777:8850   */\n    tag_94:\n        /* \"#utility.yul\":8822:8825   */\n      0x00\n        /* \"#utility.yul\":8777:8850   */\n      swap1\n      jump\t// out\n        /* \"#utility.yul\":8856:9045   */\n    tag_95:\n        /* \"#utility.yul\":8933:8965   */\n      tag_211\n      tag_94\n      jump\t// in\n    tag_211:\n        /* \"#utility.yul\":8974:9039   */\n      tag_212\n        /* \"#utility.yul\":9032:9038   */\n      dup2\n        /* \"#utility.yul\":9024:9030   */\n      dup5\n        /* \"#utility.yul\":9018:9022   */\n      dup5\n        /* \"#utility.yul\":8974:9039   */\n      tag_93\n      jump\t// in\n    tag_212:\n        /* \"#utility.yul\":8909:9045   */\n      pop\n        /* \"#utility.yul\":8856:9045   */\n      pop\n      pop\n      jump\t// out\n        /* \"#utility.yul\":9051:9237   */\n    tag_96:\n        /* \"#utility.yul\":9111:9231   */\n    tag_214:\n        /* \"#utility.yul\":9128:9131   */\n      dup2\n        /* \"#utility.yul\":9121:9126   */\n      dup2\n        /* \"#utility.yul\":9118:9132   */\n      lt\n        /* \"#utility.yul\":9111:9231   */\n      iszero\n      tag_216\n      jumpi\n        /* \"#utility.yul\":9182:9221   */\n      tag_217\n        /* \"#utility.yul\":9219:9220   */\n      0x00\n        /* \"#utility.yul\":9212:9217   */\n      dup3\n        /* \"#utility.yul\":9182:9221   */\n      tag_95\n      jump\t// in\n    tag_217:\n        /* \"#utility.yul\":9155:9156   */\n      0x01\n        /* \"#utility.yul\":9148:9153   */\n      dup2\n        /* \"#utility.yul\":9144:9157   */\n      add\n        /* \"#utility.yul\":9135:9157   */\n      swap1\n      pop\n        /* \"#utility.yul\":9111:9231   */\n      jump(tag_214)\n    tag_216:\n        /* \"#utility.yul\":9051:9237   */\n      pop\n      pop\n      jump\t// out\n        /* \"#utility.yul\":9243:9786   */\n    tag_97:\n        /* \"#utility.yul\":9344:9346   */\n      0x1f\n        /* \"#utility.yul\":9339:9342   */\n      dup3\n        /* \"#utility.yul\":9336:9347   */\n      gt\n        /* \"#utility.yul\":9333:9779   */\n      iszero\n      tag_219\n      jumpi\n        /* \"#utility.yul\":9378:9416   */\n      tag_220\n        /* \"#utility.yul\":9410:9415   */\n      dup2\n        /* \"#utility.yul\":9378:9416   */\n      tag_85\n      jump\t// in\n    tag_220:\n        /* \"#utility.yul\":9462:9491   */\n      tag_221\n        /* \"#utility.yul\":9480:9490   */\n      dup5\n        /* \"#utility.yul\":9462:9491   */\n      tag_86\n      jump\t// in\n    tag_221:\n        /* \"#utility.yul\":9452:9460   */\n      dup2\n        /* \"#utility.yul\":9448:9492   */\n      add\n        /* \"#utility.yul\":9645:9647   */\n      0x20\n        /* \"#utility.yul\":9633:9643   */\n      dup6\n        /* \"#utility.yul\":9630:9648   */\n      lt\n        /* \"#utility.yul\":9627:9676   */\n      iszero\n      tag_222\n      jumpi\n        /* \"#utility.yul\":9666:9674   */\n      dup2\n        /* \"#utility.yul\":9651:9674   */\n      swap1\n      pop\n        /* \"#utility.yul\":9627:9676   */\n    tag_222:\n        /* \"#utility.yul\":9689:9769   */\n      tag_223\n        /* \"#utility.yul\":9745:9767   */\n      tag_224\n        /* \"#utility.yul\":9763:9766   */\n      dup6\n        /* \"#utility.yul\":9745:9767   */\n      tag_86\n      jump\t// in\n    tag_224:\n        /* \"#utility.yul\":9735:9743   */\n      dup4\n        /* \"#utility.yul\":9731:9768   */\n      add\n        /* \"#utility.yul\":9718:9729   */\n      dup3\n        /* \"#utility.yul\":9689:9769   */\n      tag_96\n      jump\t// in\n    tag_223:\n        /* \"#utility.yul\":9348:9779   */\n      pop\n      pop\n        /* \"#utility.yul\":9333:9779   */\n    tag_219:\n        /* \"#utility.yul\":9243:9786   */\n      pop\n      pop\n      pop\n      jump\t// out\n        /* \"#utility.yul\":9792:9909   */\n    tag_98:\n        /* \"#utility.yul\":9846:9854   */\n      0x00\n        /* \"#utility.yul\":9896:9901   */\n      dup3\n        /* \"#utility.yul\":9890:9894   */\n      dup3\n        /* \"#utility.yul\":9886:9902   */\n      shr\n        /* \"#utility.yul\":9865:9902   */\n      swap1\n      pop\n        /* \"#utility.yul\":9792:9909   */\n      swap3\n      swap2\n      pop\n      pop\n      jump\t// out\n        /* \"#utility.yul\":9915:10084   */\n    tag_99:\n        /* \"#utility.yul\":9959:9965   */\n      0x00\n        /* \"#utility.yul\":9992:10043   */\n      tag_227\n        /* \"#utility.yul\":10040:10041   */\n      0x00\n        /* \"#utility.yul\":10036:10042   */\n      not\n        /* \"#utility.yul\":10028:10033   */\n      dup5\n        /* \"#utility.yul\":10025:10026   */\n      0x08\n        /* \"#utility.yul\":10021:10034   */\n      mul\n        /* \"#utility.yul\":9992:10043   */\n      tag_98\n      jump\t// in\n    tag_227:\n        /* \"#utility.yul\":9988:10044   */\n      not\n        /* \"#utility.yul\":10073:10077   */\n      dup1\n        /* \"#utility.yul\":10067:10071   */\n      dup4\n        /* \"#utility.yul\":10063:10078   */\n      and\n        /* \"#utility.yul\":10053:10078   */\n      swap2\n      pop\n        /* \"#utility.yul\":9966:10084   */\n      pop\n        /* \"#utility.yul\":9915:10084   */\n      swap3\n      swap2\n      pop\n      pop\n      jump\t// out\n        /* \"#utility.yul\":10089:10384   */\n    tag_100:\n        /* \"#utility.yul\":10165:10169   */\n      0x00\n        /* \"#utility.yul\":10311:10340   */\n      tag_229\n        /* \"#utility.yul\":10336:10339   */\n      dup4\n        /* \"#utility.yul\":10330:10334   */\n      dup4\n        /* \"#utility.yul\":10311:10340   */\n      tag_99\n      jump\t// in\n    tag_229:\n        /* \"#utility.yul\":10303:10340   */\n      swap2\n      pop\n        /* \"#utility.yul\":10373:10376   */\n      dup3\n        /* \"#utility.yul\":10370:10371   */\n      0x02\n        /* \"#utility.yul\":10366:10377   */\n      mul\n        /* \"#utility.yul\":10360:10364   */\n      dup3\n        /* \"#utility.yul\":10357:10378   */\n      or\n        /* \"#utility.yul\":10349:10378   */\n      swap1\n      pop\n        /* \"#utility.yul\":10089:10384   */\n      swap3\n      swap2\n      pop\n      pop\n      jump\t// out\n        /* \"#utility.yul\":10389:11784   */\n    tag_38:\n        /* \"#utility.yul\":10506:10543   */\n      tag_231\n        /* \"#utility.yul\":10539:10542   */\n      dup3\n        /* \"#utility.yul\":10506:10543   */\n      tag_80\n      jump\t// in\n    tag_231:\n        /* \"#utility.yul\":10608:10626   */\n      0xffffffffffffffff\n        /* \"#utility.yul\":10600:10606   */\n      dup2\n        /* \"#utility.yul\":10597:10627   */\n      gt\n        /* \"#utility.yul\":10594:10650   */\n      iszero\n      tag_232\n      jumpi\n        /* \"#utility.yul\":10630:10648   */\n      tag_233\n      tag_69\n      jump\t// in\n    tag_233:\n        /* \"#utility.yul\":10594:10650   */\n    tag_232:\n        /* \"#utility.yul\":10674:10712   */\n      tag_234\n        /* \"#utility.yul\":10706:10710   */\n      dup3\n        /* \"#utility.yul\":10700:10711   */\n      sload\n        /* \"#utility.yul\":10674:10712   */\n      tag_49\n      jump\t// in\n    tag_234:\n        /* \"#utility.yul\":10759:10826   */\n      tag_235\n        /* \"#utility.yul\":10819:10825   */\n      dup3\n        /* \"#utility.yul\":10811:10817   */\n      dup3\n        /* \"#utility.yul\":10805:10809   */\n      dup6\n        /* \"#utility.yul\":10759:10826   */\n      tag_97\n      jump\t// in\n    tag_235:\n        /* \"#utility.yul\":10853:10854   */\n      0x00\n        /* \"#utility.yul\":10877:10881   */\n      0x20\n        /* \"#utility.yul\":10864:10881   */\n      swap1\n      pop\n        /* \"#utility.yul\":10909:10911   */\n      0x1f\n        /* \"#utility.yul\":10901:10907   */\n      dup4\n        /* \"#utility.yul\":10898:10912   */\n      gt\n        /* \"#utility.yul\":10926:10927   */\n      0x01\n        /* \"#utility.yul\":10921:11539   */\n      dup2\n      eq\n      tag_237\n      jumpi\n        /* \"#utility.yul\":11583:11584   */\n      0x00\n        /* \"#utility.yul\":11600:11606   */\n      dup5\n        /* \"#utility.yul\":11597:11674   */\n      iszero\n      tag_238\n      jumpi\n        /* \"#utility.yul\":11649:11658   */\n      dup3\n        /* \"#utility.yul\":11644:11647   */\n      dup8\n        /* \"#utility.yul\":11640:11659   */\n      add\n        /* \"#utility.yul\":11634:11660   */\n      mload\n        /* \"#utility.yul\":11625:11660   */\n      swap1\n      pop\n        /* \"#utility.yul\":11597:11674   */\n    tag_238:\n        /* \"#utility.yul\":11700:11767   */\n      tag_239\n        /* \"#utility.yul\":11760:11766   */\n      dup6\n        /* \"#utility.yul\":11753:11758   */\n      dup3\n        /* \"#utility.yul\":11700:11767   */\n      tag_100\n      jump\t// in\n    tag_239:\n        /* \"#utility.yul\":11694:11698   */\n      dup7\n        /* \"#utility.yul\":11687:11768   */\n      sstore\n        /* \"#utility.yul\":11556:11778   */\n      pop\n        /* \"#utility.yul\":10891:11778   */\n      jump(tag_236)\n        /* \"#utility.yul\":10921:11539   */\n    tag_237:\n        /* \"#utility.yul\":10973:10977   */\n      0x1f\n        /* \"#utility.yul\":10969:10978   */\n      not\n        /* \"#utility.yul\":10961:10967   */\n      dup5\n        /* \"#utility.yul\":10957:10979   */\n      and\n        /* \"#utility.yul\":11007:11044   */\n      tag_240\n        /* \"#utility.yul\":11039:11043   */\n      dup7\n        /* \"#utility.yul\":11007:11044   */\n      tag_85\n      jump\t// in\n    tag_240:\n        /* \"#utility.yul\":11066:11067   */\n      0x00\n        /* \"#utility.yul\":11080:11288   */\n    tag_241:\n        /* \"#utility.yul\":11094:11101   */\n      dup3\n        /* \"#utility.yul\":11091:11092   */\n      dup2\n        /* \"#utility.yul\":11088:11102   */\n      lt\n        /* \"#utility.yul\":11080:11288   */\n      iszero\n      tag_243\n      jumpi\n        /* \"#utility.yul\":11173:11182   */\n      dup5\n        /* \"#utility.yul\":11168:11171   */\n      dup10\n        /* \"#utility.yul\":11164:11183   */\n      add\n        /* \"#utility.yul\":11158:11184   */\n      mload\n        /* \"#utility.yul\":11150:11156   */\n      dup3\n        /* \"#utility.yul\":11143:11185   */\n      sstore\n        /* \"#utility.yul\":11224:11225   */\n      0x01\n        /* \"#utility.yul\":11216:11222   */\n      dup3\n        /* \"#utility.yul\":11212:11226   */\n      add\n        /* \"#utility.yul\":11202:11226   */\n      swap2\n      pop\n        /* \"#utility.yul\":11271:11273   */\n      0x20\n        /* \"#utility.yul\":11260:11269   */\n      dup6\n        /* \"#utility.yul\":11256:11274   */\n      add\n        /* \"#utility.yul\":11243:11274   */\n      swap5\n      pop\n        /* \"#utility.yul\":11117:11121   */\n      0x20\n        /* \"#utility.yul\":11114:11115   */\n      dup2\n        /* \"#utility.yul\":11110:11122   */\n      add\n        /* \"#utility.yul\":11105:11122   */\n      swap1\n      pop\n        /* \"#utility.yul\":11080:11288   */\n      jump(tag_241)\n    tag_243:\n        /* \"#utility.yul\":11316:11322   */\n      dup7\n        /* \"#utility.yul\":11307:11314   */\n      dup4\n        /* \"#utility.yul\":11304:11323   */\n      lt\n        /* \"#utility.yul\":11301:11480   */\n      iszero\n      tag_244\n      jumpi\n        /* \"#utility.yul\":11374:11383   */\n      dup5\n        /* \"#utility.yul\":11369:11372   */\n      dup10\n        /* \"#utility.yul\":11365:11384   */\n      add\n        /* \"#utility.yul\":11359:11385   */\n      mload\n        /* \"#utility.yul\":11417:11465   */\n      tag_245\n        /* \"#utility.yul\":11459:11463   */\n      0x1f\n        /* \"#utility.yul\":11451:11457   */\n      dup10\n        /* \"#utility.yul\":11447:11464   */\n      and\n        /* \"#utility.yul\":11436:11445   */\n      dup3\n        /* \"#utility.yul\":11417:11465   */\n      tag_99\n      jump\t// in\n    tag_245:\n        /* \"#utility.yul\":11409:11415   */\n      dup4\n        /* \"#utility.yul\":11402:11466   */\n      sstore\n        /* \"#utility.yul\":11324:11480   */\n      pop\n        /* \"#utility.yul\":11301:11480   */\n    tag_244:\n        /* \"#utility.yul\":11526:11527   */\n      0x01\n        /* \"#utility.yul\":11522:11523   */\n      0x02\n        /* \"#utility.yul\":11514:11520   */\n      dup9\n        /* \"#utility.yul\":11510:11524   */\n      mul\n        /* \"#utility.yul\":11506:11528   */\n      add\n        /* \"#utility.yul\":11500:11504   */\n      dup9\n        /* \"#utility.yul\":11493:11529   */\n      sstore\n        /* \"#utility.yul\":10928:11539   */\n      pop\n      pop\n      pop\n        /* \"#utility.yul\":10891:11778   */\n    tag_236:\n      pop\n        /* \"#utility.yul\":10481:11784   */\n      pop\n      pop\n      pop\n        /* \"#utility.yul\":10389:11784   */\n      pop\n      pop\n      jump\t// out\n        /* \"#utility.yul\":11790:11961   */\n    tag_101:\n        /* \"#utility.yul\":11930:11953   */\n      0x596f7520617265206e6f7420616e206f776e6572210000000000000000000000\n        /* \"#utility.yul\":11926:11927   */\n      0x00\n        /* \"#utility.yul\":11918:11924   */\n      dup3\n        /* \"#utility.yul\":11914:11928   */\n      add\n        /* \"#utility.yul\":11907:11954   */\n      mstore\n        /* \"#utility.yul\":11790:11961   */\n      pop\n      jump\t// out\n        /* \"#utility.yul\":11967:12333   */\n    tag_102:\n        /* \"#utility.yul\":12109:12112   */\n      0x00\n        /* \"#utility.yul\":12130:12197   */\n      tag_248\n        /* \"#utility.yul\":12194:12196   */\n      0x15\n        /* \"#utility.yul\":12189:12192   */\n      dup4\n        /* \"#utility.yul\":12130:12197   */\n      tag_81\n      jump\t// in\n    tag_248:\n        /* \"#utility.yul\":12123:12197   */\n      swap2\n      pop\n        /* \"#utility.yul\":12206:12299   */\n      tag_249\n        /* \"#utility.yul\":12295:12298   */\n      dup3\n        /* \"#utility.yul\":12206:12299   */\n      tag_101\n      jump\t// in\n    tag_249:\n        /* \"#utility.yul\":12324:12326   */\n      0x20\n        /* \"#utility.yul\":12319:12322   */\n      dup3\n        /* \"#utility.yul\":12315:12327   */\n      add\n        /* \"#utility.yul\":12308:12327   */\n      swap1\n      pop\n        /* \"#utility.yul\":11967:12333   */\n      swap2\n      swap1\n      pop\n      jump\t// out\n        /* \"#utility.yul\":12339:12758   */\n    tag_43:\n        /* \"#utility.yul\":12505:12509   */\n      0x00\n        /* \"#utility.yul\":12543:12545   */\n      0x20\n        /* \"#utility.yul\":12532:12541   */\n      dup3\n        /* \"#utility.yul\":12528:12546   */\n      add\n        /* \"#utility.yul\":12520:12546   */\n      swap1\n      pop\n        /* \"#utility.yul\":12592:12601   */\n      dup2\n        /* \"#utility.yul\":12586:12590   */\n      dup2\n        /* \"#utility.yul\":12582:12602   */\n      sub\n        /* \"#utility.yul\":12578:12579   */\n      0x00\n        /* \"#utility.yul\":12567:12576   */\n      dup4\n        /* \"#utility.yul\":12563:12580   */\n      add\n        /* \"#utility.yul\":12556:12603   */\n      mstore\n        /* \"#utility.yul\":12620:12751   */\n      tag_251\n        /* \"#utility.yul\":12746:12750   */\n      dup2\n        /* \"#utility.yul\":12620:12751   */\n      tag_102\n      jump\t// in\n    tag_251:\n        /* \"#utility.yul\":12612:12751   */\n      swap1\n      pop\n        /* \"#utility.yul\":12339:12758   */\n      swap2\n      swap1\n      pop\n      jump\t// out\n        /* \"#utility.yul\":12764:12912   */\n    tag_103:\n        /* \"#utility.yul\":12866:12877   */\n      0x00\n        /* \"#utility.yul\":12903:12906   */\n      dup2\n        /* \"#utility.yul\":12888:12906   */\n      swap1\n      pop\n        /* \"#utility.yul\":12764:12912   */\n      swap3\n      swap2\n      pop\n      pop\n      jump\t// out\n        /* \"#utility.yul\":12918:13308   */\n    tag_104:\n        /* \"#utility.yul\":13024:13027   */\n      0x00\n        /* \"#utility.yul\":13052:13091   */\n      tag_254\n        /* \"#utility.yul\":13085:13090   */\n      dup3\n        /* \"#utility.yul\":13052:13091   */\n      tag_80\n      jump\t// in\n    tag_254:\n        /* \"#utility.yul\":13107:13196   */\n      tag_255\n        /* \"#utility.yul\":13189:13195   */\n      dup2\n        /* \"#utility.yul\":13184:13187   */\n      dup6\n        /* \"#utility.yul\":13107:13196   */\n      tag_103\n      jump\t// in\n    tag_255:\n        /* \"#utility.yul\":13100:13196   */\n      swap4\n      pop\n        /* \"#utility.yul\":13205:13270   */\n      tag_256\n        /* \"#utility.yul\":13263:13269   */\n      dup2\n        /* \"#utility.yul\":13258:13261   */\n      dup6\n        /* \"#utility.yul\":13251:13255   */\n      0x20\n        /* \"#utility.yul\":13244:13249   */\n      dup7\n        /* \"#utility.yul\":13240:13256   */\n      add\n        /* \"#utility.yul\":13205:13270   */\n      tag_82\n      jump\t// in\n    tag_256:\n        /* \"#utility.yul\":13295:13301   */\n      dup1\n        /* \"#utility.yul\":13290:13293   */\n      dup5\n        /* \"#utility.yul\":13286:13302   */\n      add\n        /* \"#utility.yul\":13279:13302   */\n      swap2\n      pop\n        /* \"#utility.yul\":13028:13308   */\n      pop\n        /* \"#utility.yul\":12918:13308   */\n      swap3\n      swap2\n      pop\n      pop\n      jump\t// out\n        /* \"#utility.yul\":13314:13589   */\n    tag_47:\n        /* \"#utility.yul\":13446:13449   */\n      0x00\n        /* \"#utility.yul\":13468:13563   */\n      tag_258\n        /* \"#utility.yul\":13559:13562   */\n      dup3\n        /* \"#utility.yul\":13550:13556   */\n      dup5\n        /* \"#utility.yul\":13468:13563   */\n      tag_104\n      jump\t// in\n    tag_258:\n        /* \"#utility.yul\":13461:13563   */\n      swap2\n      pop\n        /* \"#utility.yul\":13580:13583   */\n      dup2\n        /* \"#utility.yul\":13573:13583   */\n      swap1\n      pop\n        /* \"#utility.yul\":13314:13589   */\n      swap3\n      swap2\n      pop\n      pop\n      jump\t// out\n        /* \"#utility.yul\":13595:13767   */\n    tag_105:\n        /* \"#utility.yul\":13735:13759   */\n      0x596f7520617265206e6f7420746865206f776e65722100000000000000000000\n        /* \"#utility.yul\":13731:13732   */\n      0x00\n        /* \"#utility.yul\":13723:13729   */\n      dup3\n        /* \"#utility.yul\":13719:13733   */\n      add\n        /* \"#utility.yul\":13712:13760   */\n      mstore\n        /* \"#utility.yul\":13595:13767   */\n      pop\n      jump\t// out\n        /* \"#utility.yul\":13773:14139   */\n    tag_106:\n        /* \"#utility.yul\":13915:13918   */\n      0x00\n        /* \"#utility.yul\":13936:14003   */\n      tag_261\n        /* \"#utility.yul\":14000:14002   */\n      0x16\n        /* \"#utility.yul\":13995:13998   */\n      dup4\n        /* \"#utility.yul\":13936:14003   */\n      tag_81\n      jump\t// in\n    tag_261:\n        /* \"#utility.yul\":13929:14003   */\n      swap2\n      pop\n        /* \"#utility.yul\":14012:14105   */\n      tag_262\n        /* \"#utility.yul\":14101:14104   */\n      dup3\n        /* \"#utility.yul\":14012:14105   */\n      tag_105\n      jump\t// in\n    tag_262:\n        /* \"#utility.yul\":14130:14132   */\n      0x20\n        /* \"#utility.yul\":14125:14128   */\n      dup3\n        /* \"#utility.yul\":14121:14133   */\n      add\n        /* \"#utility.yul\":14114:14133   */\n      swap1\n      pop\n        /* \"#utility.yul\":13773:14139   */\n      swap2\n      swap1\n      pop\n      jump\t// out\n        /* \"#utility.yul\":14145:14564   */\n    tag_57:\n        /* \"#utility.yul\":14311:14315   */\n      0x00\n        /* \"#utility.yul\":14349:14351   */\n      0x20\n        /* \"#utility.yul\":14338:14347   */\n      dup3\n        /* \"#utility.yul\":14334:14352   */\n      add\n        /* \"#utility.yul\":14326:14352   */\n      swap1\n      pop\n        /* \"#utility.yul\":14398:14407   */\n      dup2\n        /* \"#utility.yul\":14392:14396   */\n      dup2\n        /* \"#utility.yul\":14388:14408   */\n      sub\n        /* \"#utility.yul\":14384:14385   */\n      0x00\n        /* \"#utility.yul\":14373:14382   */\n      dup4\n        /* \"#utility.yul\":14369:14386   */\n      add\n        /* \"#utility.yul\":14362:14409   */\n      mstore\n        /* \"#utility.yul\":14426:14557   */\n      tag_264\n        /* \"#utility.yul\":14552:14556   */\n      dup2\n        /* \"#utility.yul\":14426:14557   */\n      tag_106\n      jump\t// in\n    tag_264:\n        /* \"#utility.yul\":14418:14557   */\n      swap1\n      pop\n        /* \"#utility.yul\":14145:14564   */\n      swap2\n      swap1\n      pop\n      jump\t// out\n\n    auxdata: 0xa26469706673582212204652fd26cd35c26d769adc1e4ffa2da4563c379afdd2c8478f455b752c5a112e64736f6c63430008120033\n}\n",
				"bytecode": {
					"linkReferences": {},
					"object": "608060405234801561001057600080fd5b50336000806101000a81548173ffffffffffffffffffffffffffffffffffffffff021916908373ffffffffffffffffffffffffffffffffffffffff160217905550610c45806100606000396000f3fe608060405234801561001057600080fd5b50600436106100625760003560e01c806332a2c5d01461006757806369b43d0714610085578063880cdc31146100a15780638da5cb5b146100bd578063a9d524e3146100db578063f5a9e5511461010b575b600080fd5b61006f610127565b60405161007c9190610490565b60405180910390f35b61009f600480360381019061009a9190610605565b61012f565b005b6100bb60048036038101906100b6919061067a565b6101ec565b005b6100c56102bd565b6040516100d291906106c8565b60405180910390f35b6100f560048036038101906100f09190610605565b6102e1565b6040516101029190610762565b60405180910390f35b61012560048036038101906101209190610784565b610391565b005b600030905090565b60006040518060400160405280838152602001600060ff1681525090506001819080600181540180825580915050600190039060005260206000209060020201600090919091909150600082015181600001908161018d9190610a12565b5060208201518160010160006101000a81548160ff021916908360ff16021790555050507f08f81b6e9109fad00df4c1e4c8017ba4cb67013034439d71e57399c83aa23f3c826040516101e09190610762565b60405180910390a15050565b3373ffffffffffffffffffffffffffffffffffffffff1660008054906101000a900473ffffffffffffffffffffffffffffffffffffffff1673ffffffffffffffffffffffffffffffffffffffff161461027a576040517f08c379a000000000000000000000000000000000000000000000000000000000815260040161027190610b30565b60405180910390fd5b806000806101000a81548173ffffffffffffffffffffffffffffffffffffffff021916908373ffffffffffffffffffffffffffffffffffffffff16021790555050565b60008054906101000a900473ffffffffffffffffffffffffffffffffffffffff1681565b60606002826040516102f39190610b8c565b9081526020016040518091039020805461030c9061082b565b80601f01602080910402602001604051908101604052809291908181526020018280546103389061082b565b80156103855780601f1061035a57610100808354040283529160200191610385565b820191906000526020600020905b81548152906001019060200180831161036857829003601f168201915b50505050509050919050565b3373ffffffffffffffffffffffffffffffffffffffff1660008054906101000a900473ffffffffffffffffffffffffffffffffffffffff1673ffffffffffffffffffffffffffffffffffffffff161461041f576040517f08c379a000000000000000000000000000000000000000000000000000000000815260040161041690610bef565b60405180910390fd5b806002836040516104309190610b8c565b9081526020016040518091039020908161044a9190610a12565b505050565b600073ffffffffffffffffffffffffffffffffffffffff82169050919050565b600061047a8261044f565b9050919050565b61048a8161046f565b82525050565b60006020820190506104a56000830184610481565b92915050565b6000604051905090565b600080fd5b600080fd5b600080fd5b600080fd5b6000601f19601f8301169050919050565b7f4e487b7100000000000000000000000000000000000000000000000000000000600052604160045260246000fd5b610512826104c9565b810181811067ffffffffffffffff82111715610531576105306104da565b5b80604052505050565b60006105446104ab565b90506105508282610509565b919050565b600067ffffffffffffffff8211156105705761056f6104da565b5b610579826104c9565b9050602081019050919050565b82818337600083830152505050565b60006105a86105a384610555565b61053a565b9050828152602081018484840111156105c4576105c36104c4565b5b6105cf848285610586565b509392505050565b600082601f8301126105ec576105eb6104bf565b5b81356105fc848260208601610595565b91505092915050565b60006020828403121561061b5761061a6104b5565b5b600082013567ffffffffffffffff811115610639576106386104ba565b5b610645848285016105d7565b91505092915050565b6106578161046f565b811461066257600080fd5b50565b6000813590506106748161064e565b92915050565b6000602082840312156106905761068f6104b5565b5b600061069e84828501610665565b91505092915050565b60006106b28261044f565b9050919050565b6106c2816106a7565b82525050565b60006020820190506106dd60008301846106b9565b92915050565b600081519050919050565b600082825260208201905092915050565b60005b8381101561071d578082015181840152602081019050610702565b60008484015250505050565b6000610734826106e3565b61073e81856106ee565b935061074e8185602086016106ff565b610757816104c9565b840191505092915050565b6000602082019050818103600083015261077c8184610729565b905092915050565b6000806040838503121561079b5761079a6104b5565b5b600083013567ffffffffffffffff8111156107b9576107b86104ba565b5b6107c5858286016105d7565b925050602083013567ffffffffffffffff8111156107e6576107e56104ba565b5b6107f2858286016105d7565b9150509250929050565b7f4e487b7100000000000000000000000000000000000000000000000000000000600052602260045260246000fd5b6000600282049050600182168061084357607f821691505b602082108103610856576108556107fc565b5b50919050565b60008190508160005260206000209050919050565b60006020601f8301049050919050565b600082821b905092915050565b6000600883026108be7fffffffffffffffffffffffffffffffffffffffffffffffffffffffffffffffff82610881565b6108c88683610881565b95508019841693508086168417925050509392505050565b6000819050919050565b6000819050919050565b600061090f61090a610905846108e0565b6108ea565b6108e0565b9050919050565b6000819050919050565b610929836108f4565b61093d61093582610916565b84845461088e565b825550505050565b600090565b610952610945565b61095d818484610920565b505050565b5b818110156109815761097660008261094a565b600181019050610963565b5050565b601f8211156109c6576109978161085c565b6109a084610871565b810160208510156109af578190505b6109c36109bb85610871565b830182610962565b50505b505050565b600082821c905092915050565b60006109e9600019846008026109cb565b1980831691505092915050565b6000610a0283836109d8565b9150826002028217905092915050565b610a1b826106e3565b67ffffffffffffffff811115610a3457610a336104da565b5b610a3e825461082b565b610a49828285610985565b600060209050601f831160018114610a7c5760008415610a6a578287015190505b610a7485826109f6565b865550610adc565b601f198416610a8a8661085c565b60005b82811015610ab257848901518255600182019150602085019450602081019050610a8d565b86831015610acf5784890151610acb601f8916826109d8565b8355505b6001600288020188555050505b505050505050565b7f596f7520617265206e6f7420616e206f776e6572210000000000000000000000600082015250565b6000610b1a6015836106ee565b9150610b2582610ae4565b602082019050919050565b60006020820190508181036000830152610b4981610b0d565b9050919050565b600081905092915050565b6000610b66826106e3565b610b708185610b50565b9350610b808185602086016106ff565b80840191505092915050565b6000610b988284610b5b565b915081905092915050565b7f596f7520617265206e6f7420746865206f776e65722100000000000000000000600082015250565b6000610bd96016836106ee565b9150610be482610ba3565b602082019050919050565b60006020820190508181036000830152610c0881610bcc565b905091905056fea26469706673582212204652fd26cd35c26d769adc1e4ffa2da4563c379afdd2c8478f455b752c5a112e64736f6c63430008120033",
					"opcodes": "PUSH1 0x80 PUSH1 0x40 MSTORE CALLVALUE DUP1 ISZERO PUSH2 0x10 JUMPI PUSH1 0x0 DUP1 REVERT JUMPDEST POP CALLER PUSH1 0x0 DUP1 PUSH2 0x100 EXP DUP2 SLOAD DUP2 PUSH20 0xFFFFFFFFFFFFFFFFFFFFFFFFFFFFFFFFFFFFFFFF MUL NOT AND SWAP1 DUP4 PUSH20 0xFFFFFFFFFFFFFFFFFFFFFFFFFFFFFFFFFFFFFFFF AND MUL OR SWAP1 SSTORE POP PUSH2 0xC45 DUP1 PUSH2 0x60 PUSH1 0x0 CODECOPY PUSH1 0x0 RETURN INVALID PUSH1 0x80 PUSH1 0x40 MSTORE CALLVALUE DUP1 ISZERO PUSH2 0x10 JUMPI PUSH1 0x0 DUP1 REVERT JUMPDEST POP PUSH1 0x4 CALLDATASIZE LT PUSH2 0x62 JUMPI PUSH1 0x0 CALLDATALOAD PUSH1 0xE0 SHR DUP1 PUSH4 0x32A2C5D0 EQ PUSH2 0x67 JUMPI DUP1 PUSH4 0x69B43D07 EQ PUSH2 0x85 JUMPI DUP1 PUSH4 0x880CDC31 EQ PUSH2 0xA1 JUMPI DUP1 PUSH4 0x8DA5CB5B EQ PUSH2 0xBD JUMPI DUP1 PUSH4 0xA9D524E3 EQ PUSH2 0xDB JUMPI DUP1 PUSH4 0xF5A9E551 EQ PUSH2 0x10B JUMPI JUMPDEST PUSH1 0x0 DUP1 REVERT JUMPDEST PUSH2 0x6F PUSH2 0x127 JUMP JUMPDEST PUSH1 0x40 MLOAD PUSH2 0x7C SWAP2 SWAP1 PUSH2 0x490 JUMP JUMPDEST PUSH1 0x40 MLOAD DUP1 SWAP2 SUB SWAP1 RETURN JUMPDEST PUSH2 0x9F PUSH1 0x4 DUP1 CALLDATASIZE SUB DUP2 ADD SWAP1 PUSH2 0x9A SWAP2 SWAP1 PUSH2 0x605 JUMP JUMPDEST PUSH2 0x12F JUMP JUMPDEST STOP JUMPDEST PUSH2 0xBB PUSH1 0x4 DUP1 CALLDATASIZE SUB DUP2 ADD SWAP1 PUSH2 0xB6 SWAP2 SWAP1 PUSH2 0x67A JUMP JUMPDEST PUSH2 0x1EC JUMP JUMPDEST STOP JUMPDEST PUSH2 0xC5 PUSH2 0x2BD JUMP JUMPDEST PUSH1 0x40 MLOAD PUSH2 0xD2 SWAP2 SWAP1 PUSH2 0x6C8 JUMP JUMPDEST PUSH1 0x40 MLOAD DUP1 SWAP2 SUB SWAP1 RETURN JUMPDEST PUSH2 0xF5 PUSH1 0x4 DUP1 CALLDATASIZE SUB DUP2 ADD SWAP1 PUSH2 0xF0 SWAP2 SWAP1 PUSH2 0x605 JUMP JUMPDEST PUSH2 0x2E1 JUMP JUMPDEST PUSH1 0x40 MLOAD PUSH2 0x102 SWAP2 SWAP1 PUSH2 0x762 JUMP JUMPDEST PUSH1 0x40 MLOAD DUP1 SWAP2 SUB SWAP1 RETURN JUMPDEST PUSH2 0x125 PUSH1 0x4 DUP1 CALLDATASIZE SUB DUP2 ADD SWAP1 PUSH2 0x120 SWAP2 SWAP1 PUSH2 0x784 JUMP JUMPDEST PUSH2 0x391 JUMP JUMPDEST STOP JUMPDEST PUSH1 0x0 ADDRESS SWAP1 POP SWAP1 JUMP JUMPDEST PUSH1 0x0 PUSH1 0x40 MLOAD DUP1 PUSH1 0x40 ADD PUSH1 0x40 MSTORE DUP1 DUP4 DUP2 MSTORE PUSH1 0x20 ADD PUSH1 0x0 PUSH1 0xFF AND DUP2 MSTORE POP SWAP1 POP PUSH1 0x1 DUP2 SWAP1 DUP1 PUSH1 0x1 DUP2 SLOAD ADD DUP1 DUP3 SSTORE DUP1 SWAP2 POP POP PUSH1 0x1 SWAP1 SUB SWAP1 PUSH1 0x0 MSTORE PUSH1 0x20 PUSH1 0x0 KECCAK256 SWAP1 PUSH1 0x2 MUL ADD PUSH1 0x0 SWAP1 SWAP2 SWAP1 SWAP2 SWAP1 SWAP2 POP PUSH1 0x0 DUP3 ADD MLOAD DUP2 PUSH1 0x0 ADD SWAP1 DUP2 PUSH2 0x18D SWAP2 SWAP1 PUSH2 0xA12 JUMP JUMPDEST POP PUSH1 0x20 DUP3 ADD MLOAD DUP2 PUSH1 0x1 ADD PUSH1 0x0 PUSH2 0x100 EXP DUP2 SLOAD DUP2 PUSH1 0xFF MUL NOT AND SWAP1 DUP4 PUSH1 0xFF AND MUL OR SWAP1 SSTORE POP POP POP PUSH32 0x8F81B6E9109FAD00DF4C1E4C8017BA4CB67013034439D71E57399C83AA23F3C DUP3 PUSH1 0x40 MLOAD PUSH2 0x1E0 SWAP2 SWAP1 PUSH2 0x762 JUMP JUMPDEST PUSH1 0x40 MLOAD DUP1 SWAP2 SUB SWAP1 LOG1 POP POP JUMP JUMPDEST CALLER PUSH20 0xFFFFFFFFFFFFFFFFFFFFFFFFFFFFFFFFFFFFFFFF AND PUSH1 0x0 DUP1 SLOAD SWAP1 PUSH2 0x100 EXP SWAP1 DIV PUSH20 0xFFFFFFFFFFFFFFFFFFFFFFFFFFFFFFFFFFFFFFFF AND PUSH20 0xFFFFFFFFFFFFFFFFFFFFFFFFFFFFFFFFFFFFFFFF AND EQ PUSH2 0x27A JUMPI PUSH1 0x40 MLOAD PUSH32 0x8C379A000000000000000000000000000000000000000000000000000000000 DUP2 MSTORE PUSH1 0x4 ADD PUSH2 0x271 SWAP1 PUSH2 0xB30 JUMP JUMPDEST PUSH1 0x40 MLOAD DUP1 SWAP2 SUB SWAP1 REVERT JUMPDEST DUP1 PUSH1 0x0 DUP1 PUSH2 0x100 EXP DUP2 SLOAD DUP2 PUSH20 0xFFFFFFFFFFFFFFFFFFFFFFFFFFFFFFFFFFFFFFFF MUL NOT AND SWAP1 DUP4 PUSH20 0xFFFFFFFFFFFFFFFFFFFFFFFFFFFFFFFFFFFFFFFF AND MUL OR SWAP1 SSTORE POP POP JUMP JUMPDEST PUSH1 0x0 DUP1 SLOAD SWAP1 PUSH2 0x100 EXP SWAP1 DIV PUSH20 0xFFFFFFFFFFFFFFFFFFFFFFFFFFFFFFFFFFFFFFFF AND DUP2 JUMP JUMPDEST PUSH1 0x60 PUSH1 0x2 DUP3 PUSH1 0x40 MLOAD PUSH2 0x2F3 SWAP2 SWAP1 PUSH2 0xB8C JUMP JUMPDEST SWAP1 DUP2 MSTORE PUSH1 0x20 ADD PUSH1 0x40 MLOAD DUP1 SWAP2 SUB SWAP1 KECCAK256 DUP1 SLOAD PUSH2 0x30C SWAP1 PUSH2 0x82B JUMP JUMPDEST DUP1 PUSH1 0x1F ADD PUSH1 0x20 DUP1 SWAP2 DIV MUL PUSH1 0x20 ADD PUSH1 0x40 MLOAD SWAP1 DUP2 ADD PUSH1 0x40 MSTORE DUP1 SWAP3 SWAP2 SWAP1 DUP2 DUP2 MSTORE PUSH1 0x20 ADD DUP3 DUP1 SLOAD PUSH2 0x338 SWAP1 PUSH2 0x82B JUMP JUMPDEST DUP1 ISZERO PUSH2 0x385 JUMPI DUP1 PUSH1 0x1F LT PUSH2 0x35A JUMPI PUSH2 0x100 DUP1 DUP4 SLOAD DIV MUL DUP4 MSTORE SWAP2 PUSH1 0x20 ADD SWAP2 PUSH2 0x385 JUMP JUMPDEST DUP3 ADD SWAP2 SWAP1 PUSH1 0x0 MSTORE PUSH1 0x20 PUSH1 0x0 KECCAK256 SWAP1 JUMPDEST DUP2 SLOAD DUP2 MSTORE SWAP1 PUSH1 0x1 ADD SWAP1 PUSH1 0x20 ADD DUP1 DUP4 GT PUSH2 0x368 JUMPI DUP3 SWAP1 SUB PUSH1 0x1F AND DUP3 ADD SWAP2 JUMPDEST POP POP POP POP POP SWAP1 POP SWAP2 SWAP1 POP JUMP JUMPDEST CALLER PUSH20 0xFFFFFFFFFFFFFFFFFFFFFFFFFFFFFFFFFFFFFFFF AND PUSH1 0x0 DUP1 SLOAD SWAP1 PUSH2 0x100 EXP SWAP1 DIV PUSH20 0xFFFFFFFFFFFFFFFFFFFFFFFFFFFFFFFFFFFFFFFF AND PUSH20 0xFFFFFFFFFFFFFFFFFFFFFFFFFFFFFFFFFFFFFFFF AND EQ PUSH2 0x41F JUMPI PUSH1 0x40 MLOAD PUSH32 0x8C379A000000000000000000000000000000000000000000000000000000000 DUP2 MSTORE PUSH1 0x4 ADD PUSH2 0x416 SWAP1 PUSH2 0xBEF JUMP JUMPDEST PUSH1 0x40 MLOAD DUP1 SWAP2 SUB SWAP1 REVERT JUMPDEST DUP1 PUSH1 0x2 DUP4 PUSH1 0x40 MLOAD PUSH2 0x430 SWAP2 SWAP1 PUSH2 0xB8C JUMP JUMPDEST SWAP1 DUP2 MSTORE PUSH1 0x20 ADD PUSH1 0x40 MLOAD DUP1 SWAP2 SUB SWAP1 KECCAK256 SWAP1 DUP2 PUSH2 0x44A SWAP2 SWAP1 PUSH2 0xA12 JUMP JUMPDEST POP POP POP JUMP JUMPDEST PUSH1 0x0 PUSH20 0xFFFFFFFFFFFFFFFFFFFFFFFFFFFFFFFFFFFFFFFF DUP3 AND SWAP1 POP SWAP2 SWAP1 POP JUMP JUMPDEST PUSH1 0x0 PUSH2 0x47A DUP3 PUSH2 0x44F JUMP JUMPDEST SWAP1 POP SWAP2 SWAP1 POP JUMP JUMPDEST PUSH2 0x48A DUP2 PUSH2 0x46F JUMP JUMPDEST DUP3 MSTORE POP POP JUMP JUMPDEST PUSH1 0x0 PUSH1 0x20 DUP3 ADD SWAP1 POP PUSH2 0x4A5 PUSH1 0x0 DUP4 ADD DUP5 PUSH2 0x481 JUMP JUMPDEST SWAP3 SWAP2 POP POP JUMP JUMPDEST PUSH1 0x0 PUSH1 0x40 MLOAD SWAP1 POP SWAP1 JUMP JUMPDEST PUSH1 0x0 DUP1 REVERT JUMPDEST PUSH1 0x0 DUP1 REVERT JUMPDEST PUSH1 0x0 DUP1 REVERT JUMPDEST PUSH1 0x0 DUP1 REVERT JUMPDEST PUSH1 0x0 PUSH1 0x1F NOT PUSH1 0x1F DUP4 ADD AND SWAP1 POP SWAP2 SWAP1 POP JUMP JUMPDEST PUSH32 0x4E487B7100000000000000000000000000000000000000000000000000000000 PUSH1 0x0 MSTORE PUSH1 0x41 PUSH1 0x4 MSTORE PUSH1 0x24 PUSH1 0x0 REVERT JUMPDEST PUSH2 0x512 DUP3 PUSH2 0x4C9 JUMP JUMPDEST DUP2 ADD DUP2 DUP2 LT PUSH8 0xFFFFFFFFFFFFFFFF DUP3 GT OR ISZERO PUSH2 0x531 JUMPI PUSH2 0x530 PUSH2 0x4DA JUMP JUMPDEST JUMPDEST DUP1 PUSH1 0x40 MSTORE POP POP POP JUMP JUMPDEST PUSH1 0x0 PUSH2 0x544 PUSH2 0x4AB JUMP JUMPDEST SWAP1 POP PUSH2 0x550 DUP3 DUP3 PUSH2 0x509 JUMP JUMPDEST SWAP2 SWAP1 POP JUMP JUMPDEST PUSH1 0x0 PUSH8 0xFFFFFFFFFFFFFFFF DUP3 GT ISZERO PUSH2 0x570 JUMPI PUSH2 0x56F PUSH2 0x4DA JUMP JUMPDEST JUMPDEST PUSH2 0x579 DUP3 PUSH2 0x4C9 JUMP JUMPDEST SWAP1 POP PUSH1 0x20 DUP2 ADD SWAP1 POP SWAP2 SWAP1 POP JUMP JUMPDEST DUP3 DUP2 DUP4 CALLDATACOPY PUSH1 0x0 DUP4 DUP4 ADD MSTORE POP POP POP JUMP JUMPDEST PUSH1 0x0 PUSH2 0x5A8 PUSH2 0x5A3 DUP5 PUSH2 0x555 JUMP JUMPDEST PUSH2 0x53A JUMP JUMPDEST SWAP1 POP DUP3 DUP2 MSTORE PUSH1 0x20 DUP2 ADD DUP5 DUP5 DUP5 ADD GT ISZERO PUSH2 0x5C4 JUMPI PUSH2 0x5C3 PUSH2 0x4C4 JUMP JUMPDEST JUMPDEST PUSH2 0x5CF DUP5 DUP3 DUP6 PUSH2 0x586 JUMP JUMPDEST POP SWAP4 SWAP3 POP POP POP JUMP JUMPDEST PUSH1 0x0 DUP3 PUSH1 0x1F DUP4 ADD SLT PUSH2 0x5EC JUMPI PUSH2 0x5EB PUSH2 0x4BF JUMP JUMPDEST JUMPDEST DUP2 CALLDATALOAD PUSH2 0x5FC DUP5 DUP3 PUSH1 0x20 DUP7 ADD PUSH2 0x595 JUMP JUMPDEST SWAP2 POP POP SWAP3 SWAP2 POP POP JUMP JUMPDEST PUSH1 0x0 PUSH1 0x20 DUP3 DUP5 SUB SLT ISZERO PUSH2 0x61B JUMPI PUSH2 0x61A PUSH2 0x4B5 JUMP JUMPDEST JUMPDEST PUSH1 0x0 DUP3 ADD CALLDATALOAD PUSH8 0xFFFFFFFFFFFFFFFF DUP2 GT ISZERO PUSH2 0x639 JUMPI PUSH2 0x638 PUSH2 0x4BA JUMP JUMPDEST JUMPDEST PUSH2 0x645 DUP5 DUP3 DUP6 ADD PUSH2 0x5D7 JUMP JUMPDEST SWAP2 POP POP SWAP3 SWAP2 POP POP JUMP JUMPDEST PUSH2 0x657 DUP2 PUSH2 0x46F JUMP JUMPDEST DUP2 EQ PUSH2 0x662 JUMPI PUSH1 0x0 DUP1 REVERT JUMPDEST POP JUMP JUMPDEST PUSH1 0x0 DUP2 CALLDATALOAD SWAP1 POP PUSH2 0x674 DUP2 PUSH2 0x64E JUMP JUMPDEST SWAP3 SWAP2 POP POP JUMP JUMPDEST PUSH1 0x0 PUSH1 0x20 DUP3 DUP5 SUB SLT ISZERO PUSH2 0x690 JUMPI PUSH2 0x68F PUSH2 0x4B5 JUMP JUMPDEST JUMPDEST PUSH1 0x0 PUSH2 0x69E DUP5 DUP3 DUP6 ADD PUSH2 0x665 JUMP JUMPDEST SWAP2 POP POP SWAP3 SWAP2 POP POP JUMP JUMPDEST PUSH1 0x0 PUSH2 0x6B2 DUP3 PUSH2 0x44F JUMP JUMPDEST SWAP1 POP SWAP2 SWAP1 POP JUMP JUMPDEST PUSH2 0x6C2 DUP2 PUSH2 0x6A7 JUMP JUMPDEST DUP3 MSTORE POP POP JUMP JUMPDEST PUSH1 0x0 PUSH1 0x20 DUP3 ADD SWAP1 POP PUSH2 0x6DD PUSH1 0x0 DUP4 ADD DUP5 PUSH2 0x6B9 JUMP JUMPDEST SWAP3 SWAP2 POP POP JUMP JUMPDEST PUSH1 0x0 DUP2 MLOAD SWAP1 POP SWAP2 SWAP1 POP JUMP JUMPDEST PUSH1 0x0 DUP3 DUP3 MSTORE PUSH1 0x20 DUP3 ADD SWAP1 POP SWAP3 SWAP2 POP POP JUMP JUMPDEST PUSH1 0x0 JUMPDEST DUP4 DUP2 LT ISZERO PUSH2 0x71D JUMPI DUP1 DUP3 ADD MLOAD DUP2 DUP5 ADD MSTORE PUSH1 0x20 DUP2 ADD SWAP1 POP PUSH2 0x702 JUMP JUMPDEST PUSH1 0x0 DUP5 DUP5 ADD MSTORE POP POP POP POP JUMP JUMPDEST PUSH1 0x0 PUSH2 0x734 DUP3 PUSH2 0x6E3 JUMP JUMPDEST PUSH2 0x73E DUP2 DUP6 PUSH2 0x6EE JUMP JUMPDEST SWAP4 POP PUSH2 0x74E DUP2 DUP6 PUSH1 0x20 DUP7 ADD PUSH2 0x6FF JUMP JUMPDEST PUSH2 0x757 DUP2 PUSH2 0x4C9 JUMP JUMPDEST DUP5 ADD SWAP2 POP POP SWAP3 SWAP2 POP POP JUMP JUMPDEST PUSH1 0x0 PUSH1 0x20 DUP3 ADD SWAP1 POP DUP2 DUP2 SUB PUSH1 0x0 DUP4 ADD MSTORE PUSH2 0x77C DUP2 DUP5 PUSH2 0x729 JUMP JUMPDEST SWAP1 POP SWAP3 SWAP2 POP POP JUMP JUMPDEST PUSH1 0x0 DUP1 PUSH1 0x40 DUP4 DUP6 SUB SLT ISZERO PUSH2 0x79B JUMPI PUSH2 0x79A PUSH2 0x4B5 JUMP JUMPDEST JUMPDEST PUSH1 0x0 DUP4 ADD CALLDATALOAD PUSH8 0xFFFFFFFFFFFFFFFF DUP2 GT ISZERO PUSH2 0x7B9 JUMPI PUSH2 0x7B8 PUSH2 0x4BA JUMP JUMPDEST JUMPDEST PUSH2 0x7C5 DUP6 DUP3 DUP7 ADD PUSH2 0x5D7 JUMP JUMPDEST SWAP3 POP POP PUSH1 0x20 DUP4 ADD CALLDATALOAD PUSH8 0xFFFFFFFFFFFFFFFF DUP2 GT ISZERO PUSH2 0x7E6 JUMPI PUSH2 0x7E5 PUSH2 0x4BA JUMP JUMPDEST JUMPDEST PUSH2 0x7F2 DUP6 DUP3 DUP7 ADD PUSH2 0x5D7 JUMP JUMPDEST SWAP2 POP POP SWAP3 POP SWAP3 SWAP1 POP JUMP JUMPDEST PUSH32 0x4E487B7100000000000000000000000000000000000000000000000000000000 PUSH1 0x0 MSTORE PUSH1 0x22 PUSH1 0x4 MSTORE PUSH1 0x24 PUSH1 0x0 REVERT JUMPDEST PUSH1 0x0 PUSH1 0x2 DUP3 DIV SWAP1 POP PUSH1 0x1 DUP3 AND DUP1 PUSH2 0x843 JUMPI PUSH1 0x7F DUP3 AND SWAP2 POP JUMPDEST PUSH1 0x20 DUP3 LT DUP2 SUB PUSH2 0x856 JUMPI PUSH2 0x855 PUSH2 0x7FC JUMP JUMPDEST JUMPDEST POP SWAP2 SWAP1 POP JUMP JUMPDEST PUSH1 0x0 DUP2 SWAP1 POP DUP2 PUSH1 0x0 MSTORE PUSH1 0x20 PUSH1 0x0 KECCAK256 SWAP1 POP SWAP2 SWAP1 POP JUMP JUMPDEST PUSH1 0x0 PUSH1 0x20 PUSH1 0x1F DUP4 ADD DIV SWAP1 POP SWAP2 SWAP1 POP JUMP JUMPDEST PUSH1 0x0 DUP3 DUP3 SHL SWAP1 POP SWAP3 SWAP2 POP POP JUMP JUMPDEST PUSH1 0x0 PUSH1 0x8 DUP4 MUL PUSH2 0x8BE PUSH32 0xFFFFFFFFFFFFFFFFFFFFFFFFFFFFFFFFFFFFFFFFFFFFFFFFFFFFFFFFFFFFFFFF DUP3 PUSH2 0x881 JUMP JUMPDEST PUSH2 0x8C8 DUP7 DUP4 PUSH2 0x881 JUMP JUMPDEST SWAP6 POP DUP1 NOT DUP5 AND SWAP4 POP DUP1 DUP7 AND DUP5 OR SWAP3 POP POP POP SWAP4 SWAP3 POP POP POP JUMP JUMPDEST PUSH1 0x0 DUP2 SWAP1 POP SWAP2 SWAP1 POP JUMP JUMPDEST PUSH1 0x0 DUP2 SWAP1 POP SWAP2 SWAP1 POP JUMP JUMPDEST PUSH1 0x0 PUSH2 0x90F PUSH2 0x90A PUSH2 0x905 DUP5 PUSH2 0x8E0 JUMP JUMPDEST PUSH2 0x8EA JUMP JUMPDEST PUSH2 0x8E0 JUMP JUMPDEST SWAP1 POP SWAP2 SWAP1 POP JUMP JUMPDEST PUSH1 0x0 DUP2 SWAP1 POP SWAP2 SWAP1 POP JUMP JUMPDEST PUSH2 0x929 DUP4 PUSH2 0x8F4 JUMP JUMPDEST PUSH2 0x93D PUSH2 0x935 DUP3 PUSH2 0x916 JUMP JUMPDEST DUP5 DUP5 SLOAD PUSH2 0x88E JUMP JUMPDEST DUP3 SSTORE POP POP POP POP JUMP JUMPDEST PUSH1 0x0 SWAP1 JUMP JUMPDEST PUSH2 0x952 PUSH2 0x945 JUMP JUMPDEST PUSH2 0x95D DUP2 DUP5 DUP5 PUSH2 0x920 JUMP JUMPDEST POP POP POP JUMP JUMPDEST JUMPDEST DUP2 DUP2 LT ISZERO PUSH2 0x981 JUMPI PUSH2 0x976 PUSH1 0x0 DUP3 PUSH2 0x94A JUMP JUMPDEST PUSH1 0x1 DUP2 ADD SWAP1 POP PUSH2 0x963 JUMP JUMPDEST POP POP JUMP JUMPDEST PUSH1 0x1F DUP3 GT ISZERO PUSH2 0x9C6 JUMPI PUSH2 0x997 DUP2 PUSH2 0x85C JUMP JUMPDEST PUSH2 0x9A0 DUP5 PUSH2 0x871 JUMP JUMPDEST DUP2 ADD PUSH1 0x20 DUP6 LT ISZERO PUSH2 0x9AF JUMPI DUP2 SWAP1 POP JUMPDEST PUSH2 0x9C3 PUSH2 0x9BB DUP6 PUSH2 0x871 JUMP JUMPDEST DUP4 ADD DUP3 PUSH2 0x962 JUMP JUMPDEST POP POP JUMPDEST POP POP POP JUMP JUMPDEST PUSH1 0x0 DUP3 DUP3 SHR SWAP1 POP SWAP3 SWAP2 POP POP JUMP JUMPDEST PUSH1 0x0 PUSH2 0x9E9 PUSH1 0x0 NOT DUP5 PUSH1 0x8 MUL PUSH2 0x9CB JUMP JUMPDEST NOT DUP1 DUP4 AND SWAP2 POP POP SWAP3 SWAP2 POP POP JUMP JUMPDEST PUSH1 0x0 PUSH2 0xA02 DUP4 DUP4 PUSH2 0x9D8 JUMP JUMPDEST SWAP2 POP DUP3 PUSH1 0x2 MUL DUP3 OR SWAP1 POP SWAP3 SWAP2 POP POP JUMP JUMPDEST PUSH2 0xA1B DUP3 PUSH2 0x6E3 JUMP JUMPDEST PUSH8 0xFFFFFFFFFFFFFFFF DUP2 GT ISZERO PUSH2 0xA34 JUMPI PUSH2 0xA33 PUSH2 0x4DA JUMP JUMPDEST JUMPDEST PUSH2 0xA3E DUP3 SLOAD PUSH2 0x82B JUMP JUMPDEST PUSH2 0xA49 DUP3 DUP3 DUP6 PUSH2 0x985 JUMP JUMPDEST PUSH1 0x0 PUSH1 0x20 SWAP1 POP PUSH1 0x1F DUP4 GT PUSH1 0x1 DUP2 EQ PUSH2 0xA7C JUMPI PUSH1 0x0 DUP5 ISZERO PUSH2 0xA6A JUMPI DUP3 DUP8 ADD MLOAD SWAP1 POP JUMPDEST PUSH2 0xA74 DUP6 DUP3 PUSH2 0x9F6 JUMP JUMPDEST DUP7 SSTORE POP PUSH2 0xADC JUMP JUMPDEST PUSH1 0x1F NOT DUP5 AND PUSH2 0xA8A DUP7 PUSH2 0x85C JUMP JUMPDEST PUSH1 0x0 JUMPDEST DUP3 DUP2 LT ISZERO PUSH2 0xAB2 JUMPI DUP5 DUP10 ADD MLOAD DUP3 SSTORE PUSH1 0x1 DUP3 ADD SWAP2 POP PUSH1 0x20 DUP6 ADD SWAP5 POP PUSH1 0x20 DUP2 ADD SWAP1 POP PUSH2 0xA8D JUMP JUMPDEST DUP7 DUP4 LT ISZERO PUSH2 0xACF JUMPI DUP5 DUP10 ADD MLOAD PUSH2 0xACB PUSH1 0x1F DUP10 AND DUP3 PUSH2 0x9D8 JUMP JUMPDEST DUP4 SSTORE POP JUMPDEST PUSH1 0x1 PUSH1 0x2 DUP9 MUL ADD DUP9 SSTORE POP POP POP JUMPDEST POP POP POP POP POP POP JUMP JUMPDEST PUSH32 0x596F7520617265206E6F7420616E206F776E6572210000000000000000000000 PUSH1 0x0 DUP3 ADD MSTORE POP JUMP JUMPDEST PUSH1 0x0 PUSH2 0xB1A PUSH1 0x15 DUP4 PUSH2 0x6EE JUMP JUMPDEST SWAP2 POP PUSH2 0xB25 DUP3 PUSH2 0xAE4 JUMP JUMPDEST PUSH1 0x20 DUP3 ADD SWAP1 POP SWAP2 SWAP1 POP JUMP JUMPDEST PUSH1 0x0 PUSH1 0x20 DUP3 ADD SWAP1 POP DUP2 DUP2 SUB PUSH1 0x0 DUP4 ADD MSTORE PUSH2 0xB49 DUP2 PUSH2 0xB0D JUMP JUMPDEST SWAP1 POP SWAP2 SWAP1 POP JUMP JUMPDEST PUSH1 0x0 DUP2 SWAP1 POP SWAP3 SWAP2 POP POP JUMP JUMPDEST PUSH1 0x0 PUSH2 0xB66 DUP3 PUSH2 0x6E3 JUMP JUMPDEST PUSH2 0xB70 DUP2 DUP6 PUSH2 0xB50 JUMP JUMPDEST SWAP4 POP PUSH2 0xB80 DUP2 DUP6 PUSH1 0x20 DUP7 ADD PUSH2 0x6FF JUMP JUMPDEST DUP1 DUP5 ADD SWAP2 POP POP SWAP3 SWAP2 POP POP JUMP JUMPDEST PUSH1 0x0 PUSH2 0xB98 DUP3 DUP5 PUSH2 0xB5B JUMP JUMPDEST SWAP2 POP DUP2 SWAP1 POP SWAP3 SWAP2 POP POP JUMP JUMPDEST PUSH32 0x596F7520617265206E6F7420746865206F776E65722100000000000000000000 PUSH1 0x0 DUP3 ADD MSTORE POP JUMP JUMPDEST PUSH1 0x0 PUSH2 0xBD9 PUSH1 0x16 DUP4 PUSH2 0x6EE JUMP JUMPDEST SWAP2 POP PUSH2 0xBE4 DUP3 PUSH2 0xBA3 JUMP JUMPDEST PUSH1 0x20 DUP3 ADD SWAP1 POP SWAP2 SWAP1 POP JUMP JUMPDEST PUSH1 0x0 PUSH1 0x20 DUP3 ADD SWAP1 POP DUP2 DUP2 SUB PUSH1 0x0 DUP4 ADD MSTORE PUSH2 0xC08 DUP2 PUSH2 0xBCC JUMP JUMPDEST SWAP1 POP SWAP2 SWAP1 POP JUMP INVALID LOG2 PUSH5 0x6970667358 0x22 SLT KECCAK256 CHAINID MSTORE REVERT 0x26 0xCD CALLDATALOAD 0xC2 PUSH14 0x769ADC1E4FFA2DA4563C379AFDD2 0xC8 SELFBALANCE DUP16 GASLIMIT JUMPDEST PUSH22 0x2C5A112E64736F6C6343000812003300000000000000 "
				},
				"gasEstimates": {
					"creation": {
						"codeDepositCost": "628200",
						"executionCost": "24930",
						"totalCost": "653130"
					},
					"external": {
						"getCoinPrice(string)": "infinite",
						"getContractAddress()": "363",
						"owner()": "2555",
						"requestUpdate(string)": "infinite",
						"updateCoinPrice(string,string)": "infinite",
						"updateOwner(address)": "26911"
					}
				},
				"methodIdentifiers": {
					"getCoinPrice(string)": "a9d524e3",
					"getContractAddress()": "32a2c5d0",
					"owner()": "8da5cb5b",
					"requestUpdate(string)": "69b43d07",
					"updateCoinPrice(string,string)": "f5a9e551",
					"updateOwner(address)": "880cdc31"
				}
			},
			"storageLayout": {
				"storage": [
					{
						"astId": 3,
						"contract": "contracts/Price.sol:Price",
						"label": "owner",
						"offset": 0,
						"slot": "0",
						"type": "t_address_payable"
					},
					{
						"astId": 55,
						"contract": "contracts/Price.sol:Price",
						"label": "transactions",
						"offset": 0,
						"slot": "1",
						"type": "t_array(t_struct(Transaction)46_storage)dyn_storage"
					},
					{
						"astId": 59,
						"contract": "contracts/Price.sol:Price",
						"label": "coinPrice",
						"offset": 0,
						"slot": "2",
						"type": "t_mapping(t_string_memory_ptr,t_string_storage)"
					},
					{
						"astId": 63,
						"contract": "contracts/Price.sol:Price",
						"label": "coins",
						"offset": 0,
						"slot": "3",
						"type": "t_array(t_struct(Coin)51_storage)dyn_storage"
					}
				],
				"types": {
					"t_address_payable": {
						"encoding": "inplace",
						"label": "address payable",
						"numberOfBytes": "20"
					},
					"t_array(t_struct(Coin)51_storage)dyn_storage": {
						"base": "t_struct(Coin)51_storage",
						"encoding": "dynamic_array",
						"label": "struct Price.Coin[]",
						"numberOfBytes": "32"
					},
					"t_array(t_struct(Transaction)46_storage)dyn_storage": {
						"base": "t_struct(Transaction)46_storage",
						"encoding": "dynamic_array",
						"label": "struct Price.Transaction[]",
						"numberOfBytes": "32"
					},
					"t_mapping(t_string_memory_ptr,t_string_storage)": {
						"encoding": "mapping",
						"key": "t_string_memory_ptr",
						"label": "mapping(string => string)",
						"numberOfBytes": "32",
						"value": "t_string_storage"
					},
					"t_string_memory_ptr": {
						"encoding": "bytes",
						"label": "string",
						"numberOfBytes": "32"
					},
					"t_string_storage": {
						"encoding": "bytes",
						"label": "string",
						"numberOfBytes": "32"
					},
					"t_struct(Coin)51_storage": {
						"encoding": "inplace",
						"label": "struct Price.Coin",
						"members": [
							{
								"astId": 48,
								"contract": "contracts/Price.sol:Price",
								"label": "coin",
								"offset": 0,
								"slot": "0",
								"type": "t_string_storage"
							},
							{
								"astId": 50,
								"contract": "contracts/Price.sol:Price",
								"label": "price",
								"offset": 0,
								"slot": "1",
								"type": "t_string_storage"
							}
						],
						"numberOfBytes": "64"
					},
					"t_struct(Transaction)46_storage": {
						"encoding": "inplace",
						"label": "struct Price.Transaction",
						"members": [
							{
								"astId": 43,
								"contract": "contracts/Price.sol:Price",
								"label": "coin",
								"offset": 0,
								"slot": "0",
								"type": "t_string_storage"
							},
							{
								"astId": 45,
								"contract": "contracts/Price.sol:Price",
								"label": "done",
								"offset": 0,
								"slot": "1",
								"type": "t_uint8"
							}
						],
						"numberOfBytes": "64"
					},
					"t_uint8": {
						"encoding": "inplace",
						"label": "uint8",
						"numberOfBytes": "1"
					}
				}
			},
			"userdoc": {
				"kind": "user",
				"methods": {},
				"version": 1
			}
		}
	}
}