{
	"contracts/getNewBlockHash.sol": {
		"CheckBlockHash": {
			"abi": [
				{
					"inputs": [],
					"name": "currentBlockHash",
					"outputs": [
						{
							"internalType": "bytes32",
							"name": "",
							"type": "bytes32"
						}
					],
					"stateMutability": "view",
					"type": "function"
				},
				{
					"inputs": [],
					"name": "getPreviousBlockHash",
					"outputs": [
						{
							"internalType": "bytes32",
							"name": "",
							"type": "bytes32"
						}
					],
					"stateMutability": "view",
					"type": "function"
				},
				{
					"inputs": [],
					"name": "getTimestampDifference",
					"outputs": [
						{
							"internalType": "uint256",
							"name": "",
							"type": "uint256"
						}
					],
					"stateMutability": "view",
					"type": "function"
				},
				{
					"inputs": [],
					"name": "storeCurrentTimestamp",
					"outputs": [],
					"stateMutability": "nonpayable",
					"type": "function"
				}
			],
			"devdoc": {
				"kind": "dev",
				"methods": {},
				"version": 1
			},
			"evm": {
				"assembly": "    /* \"contracts/getNewBlockHash.sol\":59:800  contract CheckBlockHash {... */\n  mstore(0x40, 0x80)\n  callvalue\n  dup1\n  iszero\n  tag_1\n  jumpi\n  0x00\n  dup1\n  revert\ntag_1:\n  pop\n  dataSize(sub_0)\n  dup1\n  dataOffset(sub_0)\n  0x00\n  codecopy\n  0x00\n  return\nstop\n\nsub_0: assembly {\n        /* \"contracts/getNewBlockHash.sol\":59:800  contract CheckBlockHash {... */\n      mstore(0x40, 0x80)\n      callvalue\n      dup1\n      iszero\n      tag_1\n      jumpi\n      0x00\n      dup1\n      revert\n    tag_1:\n      pop\n      jumpi(tag_2, lt(calldatasize, 0x04))\n      shr(0xe0, calldataload(0x00))\n      dup1\n      0x19e0eb0e\n      eq\n      tag_3\n      jumpi\n      dup1\n      0x8395f7a4\n      eq\n      tag_4\n      jumpi\n      dup1\n      0xbf868feb\n      eq\n      tag_5\n      jumpi\n      dup1\n      0xc37b52a9\n      eq\n      tag_6\n      jumpi\n    tag_2:\n      0x00\n      dup1\n      revert\n        /* \"contracts/getNewBlockHash.sol\":523:628  function currentBlockHash() public view returns (bytes32) {... */\n    tag_3:\n      tag_7\n      tag_8\n      jump\t// in\n    tag_7:\n      mload(0x40)\n      tag_9\n      swap2\n      swap1\n      tag_10\n      jump\t// in\n    tag_9:\n      mload(0x40)\n      dup1\n      swap2\n      sub\n      swap1\n      return\n        /* \"contracts/getNewBlockHash.sol\":685:798  function getPreviousBlockHash() public view returns (bytes32) {... */\n    tag_4:\n      tag_11\n      tag_12\n      jump\t// in\n    tag_11:\n      mload(0x40)\n      tag_13\n      swap2\n      swap1\n      tag_10\n      jump\t// in\n    tag_13:\n      mload(0x40)\n      dup1\n      swap2\n      sub\n      swap1\n      return\n        /* \"contracts/getNewBlockHash.sol\":177:325  function storeCurrentTimestamp() public {... */\n    tag_5:\n      tag_14\n      tag_15\n      jump\t// in\n    tag_14:\n      stop\n        /* \"contracts/getNewBlockHash.sol\":331:464  function getTimestampDifference() public view returns (uint256) {... */\n    tag_6:\n      tag_16\n      tag_17\n      jump\t// in\n    tag_16:\n      mload(0x40)\n      tag_18\n      swap2\n      swap1\n      tag_19\n      jump\t// in\n    tag_18:\n      mload(0x40)\n      dup1\n      swap2\n      sub\n      swap1\n      return\n        /* \"contracts/getNewBlockHash.sol\":523:628  function currentBlockHash() public view returns (bytes32) {... */\n    tag_8:\n        /* \"contracts/getNewBlockHash.sol\":572:579  bytes32 */\n      0x00\n        /* \"contracts/getNewBlockHash.sol\":608:620  block.number */\n      number\n        /* \"contracts/getNewBlockHash.sol\":598:621  blockhash(block.number) */\n      blockhash\n        /* \"contracts/getNewBlockHash.sol\":591:621  return blockhash(block.number) */\n      swap1\n      pop\n        /* \"contracts/getNewBlockHash.sol\":523:628  function currentBlockHash() public view returns (bytes32) {... */\n      swap1\n      jump\t// out\n        /* \"contracts/getNewBlockHash.sol\":685:798  function getPreviousBlockHash() public view returns (bytes32) {... */\n    tag_12:\n        /* \"contracts/getNewBlockHash.sol\":738:745  bytes32 */\n      0x00\n        /* \"contracts/getNewBlockHash.sol\":789:790  1 */\n      0x01\n        /* \"contracts/getNewBlockHash.sol\":774:786  block.number */\n      number\n        /* \"contracts/getNewBlockHash.sol\":774:790  block.number - 1 */\n      tag_22\n      swap2\n      swap1\n      tag_23\n      jump\t// in\n    tag_22:\n        /* \"contracts/getNewBlockHash.sol\":764:791  blockhash(block.number - 1) */\n      blockhash\n        /* \"contracts/getNewBlockHash.sol\":757:791  return blockhash(block.number - 1) */\n      swap1\n      pop\n        /* \"contracts/getNewBlockHash.sol\":685:798  function getPreviousBlockHash() public view returns (bytes32) {... */\n      swap1\n      jump\t// out\n        /* \"contracts/getNewBlockHash.sol\":177:325  function storeCurrentTimestamp() public {... */\n    tag_15:\n        /* \"contracts/getNewBlockHash.sol\":254:272  lastBlockTimestamp */\n      sload(0x00)\n        /* \"contracts/getNewBlockHash.sol\":227:251  secondLastBlockTimestamp */\n      0x01\n        /* \"contracts/getNewBlockHash.sol\":227:272  secondLastBlockTimestamp = lastBlockTimestamp */\n      dup2\n      swap1\n      sstore\n      pop\n        /* \"contracts/getNewBlockHash.sol\":303:318  block.timestamp */\n      timestamp\n        /* \"contracts/getNewBlockHash.sol\":282:300  lastBlockTimestamp */\n      0x00\n        /* \"contracts/getNewBlockHash.sol\":282:318  lastBlockTimestamp = block.timestamp */\n      dup2\n      swap1\n      sstore\n      pop\n        /* \"contracts/getNewBlockHash.sol\":177:325  function storeCurrentTimestamp() public {... */\n      jump\t// out\n        /* \"contracts/getNewBlockHash.sol\":331:464  function getTimestampDifference() public view returns (uint256) {... */\n    tag_17:\n        /* \"contracts/getNewBlockHash.sol\":386:393  uint256 */\n      0x00\n        /* \"contracts/getNewBlockHash.sol\":433:457  secondLastBlockTimestamp */\n      sload(0x01)\n        /* \"contracts/getNewBlockHash.sol\":412:430  lastBlockTimestamp */\n      sload(0x00)\n        /* \"contracts/getNewBlockHash.sol\":412:457  lastBlockTimestamp - secondLastBlockTimestamp */\n      tag_26\n      swap2\n      swap1\n      tag_23\n      jump\t// in\n    tag_26:\n        /* \"contracts/getNewBlockHash.sol\":405:457  return lastBlockTimestamp - secondLastBlockTimestamp */\n      swap1\n      pop\n        /* \"contracts/getNewBlockHash.sol\":331:464  function getTimestampDifference() public view returns (uint256) {... */\n      swap1\n      jump\t// out\n        /* \"#utility.yul\":7:84   */\n    tag_27:\n        /* \"#utility.yul\":44:51   */\n      0x00\n        /* \"#utility.yul\":73:78   */\n      dup2\n        /* \"#utility.yul\":62:78   */\n      swap1\n      pop\n        /* \"#utility.yul\":7:84   */\n      swap2\n      swap1\n      pop\n      jump\t// out\n        /* \"#utility.yul\":90:208   */\n    tag_28:\n        /* \"#utility.yul\":177:201   */\n      tag_35\n        /* \"#utility.yul\":195:200   */\n      dup2\n        /* \"#utility.yul\":177:201   */\n      tag_27\n      jump\t// in\n    tag_35:\n        /* \"#utility.yul\":172:175   */\n      dup3\n        /* \"#utility.yul\":165:202   */\n      mstore\n        /* \"#utility.yul\":90:208   */\n      pop\n      pop\n      jump\t// out\n        /* \"#utility.yul\":214:436   */\n    tag_10:\n        /* \"#utility.yul\":307:311   */\n      0x00\n        /* \"#utility.yul\":345:347   */\n      0x20\n        /* \"#utility.yul\":334:343   */\n      dup3\n        /* \"#utility.yul\":330:348   */\n      add\n        /* \"#utility.yul\":322:348   */\n      swap1\n      pop\n        /* \"#utility.yul\":358:429   */\n      tag_37\n        /* \"#utility.yul\":426:427   */\n      0x00\n        /* \"#utility.yul\":415:424   */\n      dup4\n        /* \"#utility.yul\":411:428   */\n      add\n        /* \"#utility.yul\":402:408   */\n      dup5\n        /* \"#utility.yul\":358:429   */\n      tag_28\n      jump\t// in\n    tag_37:\n        /* \"#utility.yul\":214:436   */\n      swap3\n      swap2\n      pop\n      pop\n      jump\t// out\n        /* \"#utility.yul\":442:519   */\n    tag_29:\n        /* \"#utility.yul\":479:486   */\n      0x00\n        /* \"#utility.yul\":508:513   */\n      dup2\n        /* \"#utility.yul\":497:513   */\n      swap1\n      pop\n        /* \"#utility.yul\":442:519   */\n      swap2\n      swap1\n      pop\n      jump\t// out\n        /* \"#utility.yul\":525:643   */\n    tag_30:\n        /* \"#utility.yul\":612:636   */\n      tag_40\n        /* \"#utility.yul\":630:635   */\n      dup2\n        /* \"#utility.yul\":612:636   */\n      tag_29\n      jump\t// in\n    tag_40:\n        /* \"#utility.yul\":607:610   */\n      dup3\n        /* \"#utility.yul\":600:637   */\n      mstore\n        /* \"#utility.yul\":525:643   */\n      pop\n      pop\n      jump\t// out\n        /* \"#utility.yul\":649:871   */\n    tag_19:\n        /* \"#utility.yul\":742:746   */\n      0x00\n        /* \"#utility.yul\":780:782   */\n      0x20\n        /* \"#utility.yul\":769:778   */\n      dup3\n        /* \"#utility.yul\":765:783   */\n      add\n        /* \"#utility.yul\":757:783   */\n      swap1\n      pop\n        /* \"#utility.yul\":793:864   */\n      tag_42\n        /* \"#utility.yul\":861:862   */\n      0x00\n        /* \"#utility.yul\":850:859   */\n      dup4\n        /* \"#utility.yul\":846:863   */\n      add\n        /* \"#utility.yul\":837:843   */\n      dup5\n        /* \"#utility.yul\":793:864   */\n      tag_30\n      jump\t// in\n    tag_42:\n        /* \"#utility.yul\":649:871   */\n      swap3\n      swap2\n      pop\n      pop\n      jump\t// out\n        /* \"#utility.yul\":877:1057   */\n    tag_31:\n        /* \"#utility.yul\":925:1002   */\n      0x4e487b7100000000000000000000000000000000000000000000000000000000\n        /* \"#utility.yul\":922:923   */\n      0x00\n        /* \"#utility.yul\":915:1003   */\n      mstore\n        /* \"#utility.yul\":1022:1026   */\n      0x11\n        /* \"#utility.yul\":1019:1020   */\n      0x04\n        /* \"#utility.yul\":1012:1027   */\n      mstore\n        /* \"#utility.yul\":1046:1050   */\n      0x24\n        /* \"#utility.yul\":1043:1044   */\n      0x00\n        /* \"#utility.yul\":1036:1051   */\n      revert\n        /* \"#utility.yul\":1063:1257   */\n    tag_23:\n        /* \"#utility.yul\":1103:1107   */\n      0x00\n        /* \"#utility.yul\":1123:1143   */\n      tag_45\n        /* \"#utility.yul\":1141:1142   */\n      dup3\n        /* \"#utility.yul\":1123:1143   */\n      tag_29\n      jump\t// in\n    tag_45:\n        /* \"#utility.yul\":1118:1143   */\n      swap2\n      pop\n        /* \"#utility.yul\":1157:1177   */\n      tag_46\n        /* \"#utility.yul\":1175:1176   */\n      dup4\n        /* \"#utility.yul\":1157:1177   */\n      tag_29\n      jump\t// in\n    tag_46:\n        /* \"#utility.yul\":1152:1177   */\n      swap3\n      pop\n        /* \"#utility.yul\":1201:1202   */\n      dup3\n        /* \"#utility.yul\":1198:1199   */\n      dup3\n        /* \"#utility.yul\":1194:1203   */\n      sub\n        /* \"#utility.yul\":1186:1203   */\n      swap1\n      pop\n        /* \"#utility.yul\":1225:1226   */\n      dup2\n        /* \"#utility.yul\":1219:1223   */\n      dup2\n        /* \"#utility.yul\":1216:1227   */\n      gt\n        /* \"#utility.yul\":1213:1250   */\n      iszero\n      tag_47\n      jumpi\n        /* \"#utility.yul\":1230:1248   */\n      tag_48\n      tag_31\n      jump\t// in\n    tag_48:\n        /* \"#utility.yul\":1213:1250   */\n    tag_47:\n        /* \"#utility.yul\":1063:1257   */\n      swap3\n      swap2\n      pop\n      pop\n      jump\t// out\n\n    auxdata: 0xa264697066735822122075f78639410a057a0f7f77d7529cf98fc2619e0602cbbde686c68f7ce33339d464736f6c63430008120033\n}\n",
				"bytecode": {
					"linkReferences": {},
					"object": "608060405234801561001057600080fd5b506101fd806100206000396000f3fe608060405234801561001057600080fd5b506004361061004c5760003560e01c806319e0eb0e146100515780638395f7a41461006f578063bf868feb1461008d578063c37b52a914610097575b600080fd5b6100596100b5565b6040516100669190610115565b60405180910390f35b6100776100be565b6040516100849190610115565b60405180910390f35b6100956100d3565b005b61009f6100e5565b6040516100ac9190610149565b60405180910390f35b60004340905090565b60006001436100cd9190610193565b40905090565b60005460018190555042600081905550565b60006001546000546100f79190610193565b905090565b6000819050919050565b61010f816100fc565b82525050565b600060208201905061012a6000830184610106565b92915050565b6000819050919050565b61014381610130565b82525050565b600060208201905061015e600083018461013a565b92915050565b7f4e487b7100000000000000000000000000000000000000000000000000000000600052601160045260246000fd5b600061019e82610130565b91506101a983610130565b92508282039050818111156101c1576101c0610164565b5b9291505056fea264697066735822122075f78639410a057a0f7f77d7529cf98fc2619e0602cbbde686c68f7ce33339d464736f6c63430008120033",
					"opcodes": "PUSH1 0x80 PUSH1 0x40 MSTORE CALLVALUE DUP1 ISZERO PUSH2 0x10 JUMPI PUSH1 0x0 DUP1 REVERT JUMPDEST POP PUSH2 0x1FD DUP1 PUSH2 0x20 PUSH1 0x0 CODECOPY PUSH1 0x0 RETURN INVALID PUSH1 0x80 PUSH1 0x40 MSTORE CALLVALUE DUP1 ISZERO PUSH2 0x10 JUMPI PUSH1 0x0 DUP1 REVERT JUMPDEST POP PUSH1 0x4 CALLDATASIZE LT PUSH2 0x4C JUMPI PUSH1 0x0 CALLDATALOAD PUSH1 0xE0 SHR DUP1 PUSH4 0x19E0EB0E EQ PUSH2 0x51 JUMPI DUP1 PUSH4 0x8395F7A4 EQ PUSH2 0x6F JUMPI DUP1 PUSH4 0xBF868FEB EQ PUSH2 0x8D JUMPI DUP1 PUSH4 0xC37B52A9 EQ PUSH2 0x97 JUMPI JUMPDEST PUSH1 0x0 DUP1 REVERT JUMPDEST PUSH2 0x59 PUSH2 0xB5 JUMP JUMPDEST PUSH1 0x40 MLOAD PUSH2 0x66 SWAP2 SWAP1 PUSH2 0x115 JUMP JUMPDEST PUSH1 0x40 MLOAD DUP1 SWAP2 SUB SWAP1 RETURN JUMPDEST PUSH2 0x77 PUSH2 0xBE JUMP JUMPDEST PUSH1 0x40 MLOAD PUSH2 0x84 SWAP2 SWAP1 PUSH2 0x115 JUMP JUMPDEST PUSH1 0x40 MLOAD DUP1 SWAP2 SUB SWAP1 RETURN JUMPDEST PUSH2 0x95 PUSH2 0xD3 JUMP JUMPDEST STOP JUMPDEST PUSH2 0x9F PUSH2 0xE5 JUMP JUMPDEST PUSH1 0x40 MLOAD PUSH2 0xAC SWAP2 SWAP1 PUSH2 0x149 JUMP JUMPDEST PUSH1 0x40 MLOAD DUP1 SWAP2 SUB SWAP1 RETURN JUMPDEST PUSH1 0x0 NUMBER BLOCKHASH SWAP1 POP SWAP1 JUMP JUMPDEST PUSH1 0x0 PUSH1 0x1 NUMBER PUSH2 0xCD SWAP2 SWAP1 PUSH2 0x193 JUMP JUMPDEST BLOCKHASH SWAP1 POP SWAP1 JUMP JUMPDEST PUSH1 0x0 SLOAD PUSH1 0x1 DUP2 SWAP1 SSTORE POP TIMESTAMP PUSH1 0x0 DUP2 SWAP1 SSTORE POP JUMP JUMPDEST PUSH1 0x0 PUSH1 0x1 SLOAD PUSH1 0x0 SLOAD PUSH2 0xF7 SWAP2 SWAP1 PUSH2 0x193 JUMP JUMPDEST SWAP1 POP SWAP1 JUMP JUMPDEST PUSH1 0x0 DUP2 SWAP1 POP SWAP2 SWAP1 POP JUMP JUMPDEST PUSH2 0x10F DUP2 PUSH2 0xFC JUMP JUMPDEST DUP3 MSTORE POP POP JUMP JUMPDEST PUSH1 0x0 PUSH1 0x20 DUP3 ADD SWAP1 POP PUSH2 0x12A PUSH1 0x0 DUP4 ADD DUP5 PUSH2 0x106 JUMP JUMPDEST SWAP3 SWAP2 POP POP JUMP JUMPDEST PUSH1 0x0 DUP2 SWAP1 POP SWAP2 SWAP1 POP JUMP JUMPDEST PUSH2 0x143 DUP2 PUSH2 0x130 JUMP JUMPDEST DUP3 MSTORE POP POP JUMP JUMPDEST PUSH1 0x0 PUSH1 0x20 DUP3 ADD SWAP1 POP PUSH2 0x15E PUSH1 0x0 DUP4 ADD DUP5 PUSH2 0x13A JUMP JUMPDEST SWAP3 SWAP2 POP POP JUMP JUMPDEST PUSH32 0x4E487B7100000000000000000000000000000000000000000000000000000000 PUSH1 0x0 MSTORE PUSH1 0x11 PUSH1 0x4 MSTORE PUSH1 0x24 PUSH1 0x0 REVERT JUMPDEST PUSH1 0x0 PUSH2 0x19E DUP3 PUSH2 0x130 JUMP JUMPDEST SWAP2 POP PUSH2 0x1A9 DUP4 PUSH2 0x130 JUMP JUMPDEST SWAP3 POP DUP3 DUP3 SUB SWAP1 POP DUP2 DUP2 GT ISZERO PUSH2 0x1C1 JUMPI PUSH2 0x1C0 PUSH2 0x164 JUMP JUMPDEST JUMPDEST SWAP3 SWAP2 POP POP JUMP INVALID LOG2 PUSH5 0x6970667358 0x22 SLT KECCAK256 PUSH22 0xF78639410A057A0F7F77D7529CF98FC2619E0602CBBD 0xE6 DUP7 0xC6 DUP16 PUSH29 0xE33339D464736F6C634300081200330000000000000000000000000000 "
				},
				"gasEstimates": {
					"creation": {
						"codeDepositCost": "101800",
						"executionCost": "147",
						"totalCost": "101947"
					},
					"external": {
						"currentBlockHash()": "334",
						"getPreviousBlockHash()": "infinite",
						"getTimestampDifference()": "infinite",
						"storeCurrentTimestamp()": "46493"
					}
				},
				"methodIdentifiers": {
					"currentBlockHash()": "19e0eb0e",
					"getPreviousBlockHash()": "8395f7a4",
					"getTimestampDifference()": "c37b52a9",
					"storeCurrentTimestamp()": "bf868feb"
				}
			},
			"storageLayout": {
				"storage": [
					{
						"astId": 3,
						"contract": "contracts/getNewBlockHash.sol:CheckBlockHash",
						"label": "lastBlockTimestamp",
						"offset": 0,
						"slot": "0",
						"type": "t_uint256"
					},
					{
						"astId": 5,
						"contract": "contracts/getNewBlockHash.sol:CheckBlockHash",
						"label": "secondLastBlockTimestamp",
						"offset": 0,
						"slot": "1",
						"type": "t_uint256"
					}
				],
				"types": {
					"t_uint256": {
						"encoding": "inplace",
						"label": "uint256",
						"numberOfBytes": "32"
					}
				}
			},
			"userdoc": {
				"kind": "user",
				"methods": {},
				"version": 1
			}
		}
	}
}