{
  "contractName": "Price",
  "abi": [
    {
      "inputs": [],
      "stateMutability": "nonpayable",
      "type": "constructor"
    },
    {
      "inputs": [],
      "name": "owner",
      "outputs": [
        {
          "internalType": "address payable",
          "name": "",
          "type": "address"
        }
      ],
      "stateMutability": "view",
      "type": "function"
    },
    {
      "inputs": [],
      "name": "getContractAddress",
      "outputs": [
        {
          "internalType": "address",
          "name": "",
          "type": "address"
        }
      ],
      "stateMutability": "view",
      "type": "function"
    }
  ],
  "bytecode": "0x608060405234801561000f575f80fd5b50335f806101000a81548173ffffffffffffffffffffffffffffffffffffffff021916908373ffffffffffffffffffffffffffffffffffffffff1602179055506101658061005c5f395ff3fe608060405234801561000f575f80fd5b5060043610610034575f3560e01c806332a2c5d0146100385780638da5cb5b14610056575b5f80fd5b610040610074565b60405161004d91906100dd565b60405180910390f35b61005e61007b565b60405161006b9190610116565b60405180910390f35b5f30905090565b5f8054906101000a900473ffffffffffffffffffffffffffffffffffffffff1681565b5f73ffffffffffffffffffffffffffffffffffffffff82169050919050565b5f6100c78261009e565b9050919050565b6100d7816100bd565b82525050565b5f6020820190506100f05f8301846100ce565b92915050565b5f6101008261009e565b9050919050565b610110816100f6565b82525050565b5f6020820190506101295f830184610107565b9291505056fea264697066735822122009312fb5bfb72018367c236072f86e589199334fccced08ef179c92509de481164736f6c63430008140033",
  "immutableReferences": {},
  "source": "// SPDX-License-Identifier: MIT\n\npragma solidity ^0.8.20;\n\ncontract Price {\n    address payable public owner;\n\n    constructor() {\n        owner = payable(msg.sender);\n    }\n\n    modifier onlyOwner {\n        require(owner == payable(msg.sender), \"You are not an owner!\");\n        _;\n    }\n\n    function getContractAddress() public view returns(address){\n        return address(this);\n    }\n}",
  "sourcePath": "/home/azams/MyProjects/Smartcontract/Goracle/contracts/Price.sol",
  "compiler": {
    "name": "solc",
    "version": "0.8.20+commit.a1b79de6.Emscripten.clang"
  },
  "schemaVersion": "3.4.14",
  "updatedAt": "2023-05-24T05:41:04.781Z",
  "devdoc": {
    "kind": "dev",
    "methods": {},
    "version": 1
  },
  "userdoc": {
    "kind": "user",
    "methods": {},
    "version": 1
  }
}